:020000040000FA
:100000000C9463000C94D7170C948B000C948B0009
:100010000C948B000C948B000C948B000C94F716B2
:100020000C948B000C948B000C948B000C948B0024
:100030000C948B000C948B000C948B000C948B0014
:100040000C94AD160C948B000C947B160C945516E6
:100050000C948B000C948B000C948B000C948B00F4
:100060000C948B000C948B000000000024002700EF
:100070002A0000000000250028002B0000000000DE
:1000800023002600290004040404040404040202DA
:100090000202020203030303030301020408102007
:1000A0004080010204081020010204081020000012
:1000B0000008000201000003040700000000000027
:1000C00000000C18712011241FBECFEFD8E0DEBF56
:1000D000CDBF14E0A0E0B1E0EEE1FCE402C0059089
:1000E0000D92AA3EB107D9F727E0AAEEB4E001C00D
:1000F0001D92A833B207E1F710E0C2E6D0E004C0D9
:100100002197FE010E94F223C136D107C9F70E9450
:10011000FE180C9402260C940000DB0114964D91FD
:100120005C9115976D917C91DC01ED91FC910280C1
:10013000F381E02D0994AF92BF92CF92DF92EF92BC
:10014000FF920F931F93CF93DF936C017B018B0181
:10015000040F151FEB015E01AE18BF08C017D107D1
:1001600059F06991D601ED91FC910190F081E02D5B
:10017000C6010995892B79F7C501DF91CF911F91B0
:100180000F91FF90EF90DF90CF90BF90AF900895C8
:10019000FC01538D448D252F30E0842F90E0821B8D
:1001A000930B541710F0CF96089501970895FC0112
:1001B000918D828D981761F0A28DAE0FBF2FB11D6A
:1001C0005D968C91928D9F5F9F73928F90E00895C2
:1001D0008FEF9FEF0895FC01918D828D981731F07C
:1001E000828DE80FF11D858D90E008958FEF9FEFD0
:1001F0000895FC01918D228D892F90E0805C9F4FA6
:10020000821B91098F739927089580E696E00E94DA
:10021000F90021E0892B09F420E0822F089580E085
:1002200090E0892B29F00E94050181110C940000B7
:100230000895FC01A48DA80FB92FB11DA35ABF4F7B
:100240002C91848D90E001968F739927848FA689D5
:10025000B7892C93A089B1898C91837080648C9329
:10026000938D848D981306C00288F389E02D8081D8
:100270008F7D80830895EF92FF920F931F93CF930A
:10028000DF93EC0181E0888F9B8D8C8D98131AC0D1
:10029000E889F989808185FF15C09FB7F894EE89B8
:1002A000FF896083E889F989808183708064808315
:1002B0009FBF81E090E0DF91CF911F910F91FF9060
:1002C000EF900895F62E0B8D10E00F5F1F4F0F7308
:1002D0001127E02E8C8D8E110CC00FB607FCFACFC3
:1002E000E889F989808185FFF5CFCE010E94190147
:1002F000F1CFEB8DEC0FFD2FF11DE35AFF4FF08294
:100300009FB7F8940B8FEA89FB8980818062CFCFF9
:10031000CF93DF93EC01888D8823B9F0AA89BB893C
:10032000E889F9898C9185FD03C0808186FD0DC027
:100330000FB607FCF7CF8C9185FFF2CF808185FF48
:10034000EDCFCE010E941901E9CFDF91CF91089541
:10035000833081F028F4813099F08230A9F008953B
:100360008730A9F08830C9F08430B1F480918000E2
:100370008F7D03C0809180008F77809380000895E7
:1003800084B58F7784BD089584B58F7DFBCF809130
:10039000B0008F778093B00008958091B0008F7D7A
:1003A000F9CF1F93CF93DF93282F30E0F901E25567
:1003B000FF4F8491F901E656FF4FD491F901EA57B6
:1003C000FF4FC491CC23A9F0162F81110E94A801E0
:1003D000EC2FF0E0EE0FFF1FEE58FF4FA591B49108
:1003E0008FB7F894EC91111108C0D095DE23DC93FF
:1003F0008FBFDF91CF911F910895DE2BF8CFBF9271
:10040000CF92DF92EF92FF920F931F93CF93DF93E0
:10041000C12CC7E0D0E003E210E0EE24E394F12C1D
:1004200060E0809131070E94D101C8010197F1F786
:100430002091320730E0F901E255FF4F8491F90134
:10044000E656FF4FD490F901EA57FF4FB490BB2016
:10045000A9F081110E94A801EB2DF0E0EE0FFF1F23
:10046000E458FF4FA591B491EC91DE2239F0C70119
:100470000C2E01C0880F0A94EAF7C82A61E0809127
:1004800031070E94D101C8010197F1F7219708F0C7
:10049000C7CF8C2DDF91CF911F910F91FF90EF90DF
:1004A000DF90CF90BF900895CF93DF9360E080916D
:1004B00033070E94D10183E290E00197F1F70E9497
:1004C000FF01C82FD0E0DC2FCC270E94FF01C82BF2
:1004D00061E0809133070E94D101C2FD13C083E027
:1004E000D695C7958A95E1F7BE0190E080E00E941D
:1004F000862020E030E040E85EE30E94E720DF91C4
:10050000CF91089560E070E080EC9FE7F8CFCF9343
:10051000DF9390E0FC01E656FF4F24918A579F4FEE
:10052000FC0184918823D1F090E0880F991FFC0191
:10053000E859FF4FA591B491FC01EE58FF4FC591CA
:10054000D49161110EC09FB7F8948C91E22FE09581
:100550008E238C932881E223E8839FBFDF91CF9184
:1005600008958FB7F894EC91E22BEC938FBFF6CF00
:100570008E3008F08E508770806480937C0080916C
:100580007A00806480937A0080917A0086FDFCCFA7
:10059000809178009091790008953FB7F894809108
:1005A0000F0590911005A0911105B091120526B587
:1005B000A89B05C02F3F19F00196A11DB11D3FBF9B
:1005C000BA2FA92F982F8827BC01CD01620F711D6A
:1005D000811D911D42E0660F771F881F991F4A9564
:1005E000D1F708958F929F92AF92BF92CF92DF92F0
:1005F000EF92FF926B017C010E94CD024B015C01E6
:10060000C114D104E104F104B9F00E94CD026819CB
:1006100079098A099B09683E73408105910580F339
:1006200021E0C21AD108E108F10888EE880E83E0C3
:10063000981EA11CB11CE4CFFF90EF90DF90CF90EB
:10064000BF90AF909F908F9008958436910514F0DD
:1006500083E690E020914A0630914B06220F331F2B
:10066000F901EC58FA4F91838083265D394F880F4A
:10067000991FFC01EB5EFE4F80819181F90191830E
:10068000808361E070E080E090E00C94F2022FB78C
:10069000F89460910B0570910C0580910D05909177
:1006A0000E052FBF08954F925F926F927F928F92A7
:1006B0009F92AF92BF92CF92DF92EF92FF92CF9331
:1006C000DF9300D000D0CDB7DEB79C0150E040E012
:1006D00060E472E48FE090E00E94BB2129013A01BE
:1006E0000E94CD0269837A838B839C83C12CD12C99
:1006F0007601812C912C54010E94CD0229813A81EE
:100700004B815C81621B730B840B950B6415750523
:1007100086059705C0F480915F060E94B80220917B
:10072000590630915A06DC01A21BB30B9D010E94B1
:10073000F823860E971EA81EB91E3FEFC31AD30AD0
:10074000E30AF30AD9CFC501B401A70196010E94BB
:100750001C22CA01B9010E9486200E946D2320E05C
:1007600030EC4FE754E40E94BA2220E030E040EA47
:1007700050E40E94E72020915B0630915C06409196
:100780005D0650915E060E94BA220F900F900F9066
:100790000F90DF91CF91FF90EF90DF90CF90BF90BF
:1007A000AF909F908F907F906F905F904F90089543
:1007B000CF92DF92EF92FF92CF93C091570582E3E1
:1007C00090E0C93C28F4C83CD1F08091560590E0F7
:1007D0000E9453036B017C016C2F70E090E080E07D
:1007E0000E948820A70196010E94E720C1E020E036
:1007F00030E044E352E40E94622387FDC0E08C2F86
:10080000CF91FF90EF90DF90CF9008950F931F93BB
:10081000CF93DF938C01EB010E94A5218883C8014F
:1008200001960E94A5218983CE01DF91CF911F916E
:100830000F9108950F931F93CF93DF93EC0188815D
:100840009981009759F02A813B812617370730F0AC
:1008500081E0DF91CF911F910F9108958B016F5F20
:100860007F4F0E942C25009759F0998388831B8322
:100870000A832C813D81232B59F7FC011082E8CF9C
:1008800080E0E7CFCF93DF93EC01888199810097D7
:1008900011F00E94A324198218821D821C821B82DF
:1008A0001A82DF91CF910895EF92FF920F931F93D9
:1008B000CF93DF93EC018617970781F0FB0100814E
:1008C00011810115110539F0E480F580B7010E940E
:1008D0001A0481110BC0CE010E944204CE01DF91A7
:1008E000CF911F910F91FF90EF900895FD82EC82C0
:1008F000B801888199810E94FB25F0CFFC0180819D
:100900009181009711F00C94A3240895EF92FF9227
:100910000F931F93CF93DF93EC017B011982188211
:100920001B821A821D821C82FB0101900020E9F7C4
:1009300031978F01061B170BB8010E941A04811111
:1009400009C0CE01DF91CF911F910F91FF90EF90E1
:100950000C9442041D830C83B70188819981DF9137
:10096000CF911F910F91FF90EF900C94FB25FB010D
:1009700001900020E9F73197AF01461B570BDC01CE
:10098000ED91FC910280F381E02D0994CF93DF93E8
:10099000EB01BC0185E097E00E945404BE018FE0AA
:1009A00097E00E9454048091130790911407C0911E
:1009B0000307D0910407892BC9F06FEE71E0809195
:1009C0000F07909110070E94F225892B79F465E0BA
:1009D00077E0CE010E948D0063EF71E08091030704
:1009E00090910407DF91CF910C94B70465E077E014
:1009F000CE010E948D0067EF71E080910307909116
:100A000004070E94B7046FE077E08091030790919C
:100A100004070E948D0068EF71E0809103079091B8
:100A200004070E94B704D8CF8F929F92AF92BF92D3
:100A3000EF92FF920F931F93CF93DF93CDB7DEB763
:100A4000A1970FB6F894DEBF0FBECDBF4A015B0180
:100A5000BC0185E097E00E94540480920B079092BD
:100A60000C07A0920D07B0920E0765E077E0809129
:100A70000307909104070E948D006AEF71E0809156
:100A80000307909104070E94B704E0900307F090D9
:100A9000040720910B0730910C0740910D075091EE
:100AA0000E0719A28E010F5D1F4F8AE0882E912C30
:100AB000A12CB12CCA01B901A50194010E941C22EC
:100AC000605DF80162938F012115310541055105E3
:100AD00089F7309721F0BF01C7010E94B70463EF87
:100AE00071E080910307909104070E94B704A196DA
:100AF0000FB6F894DEBF0FBECDBFDF91CF911F912F
:100B00000F91FF90EF90BF90AF909F908F900895BE
:100B1000CF93DF9300D000D000D0CDB7DEB78823CD
:100B2000F9F00E94D803882391F06CEF71E0CE01B8
:100B300001960E94860441E050E060E070E0CE0142
:100B400001960E941405CE0101960E947E0426960D
:100B50000FB6F894DEBF0FBECDBFDF91CF910895E1
:100B60006CEF71E0CE0101960E94860440E050E0F7
:100B7000BA01E5CF4F925F926F927F928F929F92D0
:100B8000AF92BF92CF92DF92EF92FF92CF93DF931B
:100B900000D000D0CDB7DEB780915A0590915B05AB
:100BA0006091590570E00E94DE237B0180905A0518
:100BB00090905B05B12CA12CC0905E05D0905F0594
:100BC00026012AE0421A5108712C612C60914405DB
:100BD0007091450580914605909147050E942C2310
:100BE0009B01AC0124193509460957096E2D70E0A7
:100BF00090E080E0681979098A099B090E94C22364
:100C0000960150E040E029833A834B835C832419AA
:100C10003509460957090E94BB21820E931EA41E66
:100C2000B51E9092490580924805FF2480914805A1
:100C3000909149058E159F0580F0209148053091CF
:100C4000490580915A0590915B058217930708F03A
:100C500051C0E0905A05F0905B05F0924905E09292
:100C600048050E94D803882309F449C0C090440570
:100C7000D0904505E0904605F090470569817A815E
:100C80008B819C810E94862020E030E040E85EE37A
:100C90000E944E22A70196010E94622318160CF0B2
:100CA00050C0289A80914805909149056091580557
:100CB00070E00E94DE2390E080E00E94F20228981B
:100CC000609148057091490590E080E00F900F9089
:100CD0000F900F90DF91CF91FF90EF90DF90CF902A
:100CE000BF90AF909F908F907F906F905F904F904C
:100CF0000C94F202E0904805F0904905AECF80E0F8
:100D00000E94880560915E0570915F0590E080E02B
:100D10000E9486206B017C0120E030E040E251E43B
:100D20000E944D222B013C01209144053091450544
:100D300040914605509147050E9462231816A4F47D
:100D4000289A0F900F900F900F90DF91CF91FF9006
:100D5000EF90DF90CF90BF90AF909F908F907F905B
:100D60006F905F904F900895809144059091450554
:100D7000A0914605B091470589839A83AB83BC83D4
:100D800020E030E040E450E4C701B6010E944D226B
:100D90004B015C0129813A814B815C81C301B20125
:100DA0000E9481201816CCF0209144053091450511
:100DB0004091460550914705C501B4010E94622348
:100DC00018165CF4289A609148057091490590E0E6
:100DD00080E00E94F2022898B4CF2091440530911F
:100DE00045054091460550914705C501B4010E9453
:100DF00081201816B4F08090440590904505A0908D
:100E00004605B090470520E030E040E85FE3C701C9
:100E1000B6010E944D22A50194010E94622387FF22
:100E200038C08090440590904505A0904605B0904C
:100E3000470520E030E040E85EE3C701B6010E94CC
:100E40004D22A50194010E94622387FDC4CF209109
:100E50004405309145054091460550914705C7012D
:100E6000B6010E94622318160CF0B5CF289A609143
:100E70004805709149057695679590E080E00E945D
:100E8000F20228986091480570914905660F771F16
:100E90001BCF289A60914805709149050CCF0F939C
:100EA0001F93CF93DF9300D000D000D0CDB7DEB733
:100EB00080916C0581110DC00E9447036093680505
:100EC0007093690580936A0590936B0581E0809328
:100ED0006C050E94D803882309F4B8C08091670587
:100EE000811171C080910401882309F44FC081E011
:100EF0000E948805E0916605F0E0E55FFE4F1081F5
:100F0000812F90E00E94250367E072E0CE010196F8
:100F10000E948604412F50E070E060E0CE0101960F
:100F20000E941405CE0101960E947E040E94470390
:100F3000009168051091690520916A0530916B0553
:100F4000AB01BC01401B510B620B730BE0916505BB
:100F500028EE33E0E29FC001E39F900D1124092E9B
:100F6000000CAA0BBB0B84179507A607B70708F060
:100F700046C0109204010E94470360936805709375
:100F8000690580936A0590936B0539C088E290E00B
:100F90000E9425030E94470300916805109169058E
:100FA00020916A0530916B05601B710B820B930BCE
:100FB000693B7B408105910510F181E080936705D5
:100FC00080930401D8CF80916405813029F50E9477
:100FD000880581E690E00E94250367E072E0CE017B
:100FE00001960E94860441E650E060E070E0CE0188
:100FF00001960E941405CE0101960E947E040E9473
:10100000BA0526960FB6F894DEBF0FBECDBFDF91AE
:10101000CF911F910F910895843089F781E08093DB
:101020006305E0916205F0E0E55FFE4F1081812FDE
:1010300090E00E94250367E072E0CE0101960E94D5
:101040008604412F50E070E060E0D1CF80E00E9444
:101050008805E0916605F0E0E55FFE4F1081812F85
:1010600090E00E94250367E072E0CE0101960E94A5
:101070008604412F50E070E060E0CE0101960E94AE
:101080001405CE0101960E947E041092670573CF6D
:10109000CF92DF92EF92FF921F93CF93DF9300D016
:1010A00000D000D0CDB7DEB78091F10481110DC022
:1010B0000E9447036093ED047093EE048093EF0465
:1010C0009093F00481E08093F1040E94D803882378
:1010D00009F409C180910101882361F00E9447034E
:1010E0006093ED047093EE048093EF049093F0040A
:1010F0001092010180910001882309F451C00E94DF
:101100004703C090ED04D090EE04E090EF04F0901F
:10111000F0046C197D098E099F09613A7F408105B1
:10112000910578F01092000181E08093EC040E9418
:1011300047036093ED047093EE048093EF04909363
:10114000F00481E00E948805E0916205F0E0E55F2F
:10115000FE4F1081812F90E00E94250367E072E02E
:10116000CE0101960E948604412F50E070E060E0BD
:10117000CE0101960E941405CE0101960E947E04C4
:101180000E94BA0526960FB6F894DEBF0FBECDBFFB
:10119000DF91CF911F91FF90EF90DF90CF90089556
:1011A0008091EC04882361F30E944703C090ED0412
:1011B000D090EE04E090EF04F090F0046C197D09FB
:1011C0008E099F09653F714081059105C8F2E09144
:1011D0006205F0E0E55FFE4FC080E0916005F0E061
:1011E000E55FFE4F10811C1508F043C08C2D612F68
:1011F0000E94D223682F70E090E080E00E94882057
:1012000020E030E040E05FE30E944E220E942C2369
:10121000862F880F680F8091EB04680F6093EB04B2
:10122000C61AC11608F45CC0C092EA041091EA0420
:10123000812F90E00E94250367E072E0CE010196C5
:101240000E948604412F50E070E060E0CE010196DC
:101250000E941405CE0101960E947E040E9447035D
:101260006093ED047093EE048093EF049093F00488
:1012700087CFC11698F7812F6C2D0E94D223682F3B
:1012800070E090E080E00E94882020E030E040E0C4
:101290005FE30E944E220E942C23A62FAA0FA60FC6
:1012A0006091EB04A60FA093EB04D12CF12CE12C60
:1012B000212F30E050E040E02C193D094E095F0934
:1012C000B0E00E94DA2124E630E040E050E00E94E5
:1012D000BB21C20ED31EE41EF51E1C1508F0A4CFC0
:1012E0001093EA04A3CF80E00E94880580916405F2
:1012F000813091F510916205E12FF0E0E55FFE4F3E
:10130000808190E00E94250367E072E0CE010196A3
:101310000E948604412F50E070E060E0CE0101960B
:101320000E941405CE0101960E947E040E9447038C
:101330006093ED047093EE048093EF049093F004B7
:101340001092EC0481E0809300011092EB04109263
:10135000EA048093010114CF843041F710926305B1
:10136000E5CF4F925F926F927F928F929F92AF9252
:10137000BF92CF92DF92EF92FF92CF93DF9300D094
:1013800000D0CDB7DEB780915A0590915B05609192
:10139000590570E00E94DE237B0180905A059090F1
:1013A0005B05B12CA12CC0905E05D0905F05260195
:1013B0008AE0481A5108712C612C609144057091A3
:1013C000450580914605909147050E942C239B017D
:1013D000AC0124193509460957096E2D70E090E0DB
:1013E00080E0681979098A099B090E94C223960145
:1013F00050E040E024193509460957090E94BB21F5
:10140000820E931EA41EB51E909249058092480537
:10141000FF2480914805909149058E159F0580F025
:10142000209148053091490580915A0590915B05BE
:101430008217930708F05AC0E0905A05F0905B05B8
:10144000F0924905E09248050E94D803882309F4E8
:1014500052C081E690E00E94250381E00E94880549
:10146000C0904405D0904505E0904605F0904705B2
:1014700060915E0570915F0590E080E00E9486209B
:1014800020E030E040E85EE30E944E22A701960192
:101490000E94622318160CF050C0289A80914805CB
:1014A000909149056091580570E00E94DE2390E01C
:1014B00080E00E94F20228986091480570914905E9
:1014C00090E080E00F900F900F900F90DF91CF9100
:1014D000FF90EF90DF90CF90BF90AF909F908F9054
:1014E0007F906F905F904F900C94F202E0904805CF
:1014F000F0904905A5CF80E00E94880560915E05C7
:1015000070915F0590E080E00E9486206B017C0175
:1015100020E030E040E251E40E944D222B013C01EA
:10152000209144053091450540914605509147056D
:101530000E9462231816A4F4289A0F900F900F901F
:101540000F90DF91CF91FF90EF90DF90CF90BF9001
:10155000AF909F908F907F906F905F904F90089585
:101560008091440590914505A0914605B0914705AD
:1015700089839A83AB83BC8320E030E040E450E46D
:10158000C701B6010E944D224B015C0129813A81BD
:101590004B815C81C301B2010E9481201816CCF0FE
:1015A00060914405709145058091460590914705ED
:1015B000A50194010E94812087FF0BC0289A6091A9
:1015C00048057091490590E080E00E94F202289859
:1015D000B4CF609144057091450580914605909186
:1015E0004705A50194010E94622387FD16C08090E3
:1015F000440590904505A0904605B090470520E031
:1016000030E040E85FE3C701B6010E944D22A5012A
:1016100094010E94622387FF38C080904405909017
:101620004505A0904605B090470520E030E040E039
:101630005FE3C701B6010E944D22A50194010E94FB
:101640008120181624F220914405309145054091DF
:10165000460550914705C701B6010E94622318163E
:101660000CF0B5CF289A60914805709149057695A0
:10167000679590E080E00E94F2022898609148050A
:1016800070914905660F771F1BCF289A6091480516
:10169000709149050CCFFF920F931F93CF93DF9367
:1016A000EC018B01FB01F0800E94A521F81621F0CE
:1016B0006F2DCE010E94AD21F801F1802196CE015F
:1016C0000E94A521F81621F06F2DCE010E94AD21B8
:1016D000C801DF91CF911F910F91FF9008951F9343
:1016E000CF93DF93CDB7DEB72E970FB6F894DEBF5A
:1016F0000FBECDBF8091FD069091FE06863091050C
:1017000009F4AAC08730910509F41CC3039709F0B6
:1017100099C06EEA72E0CE0101960E948604CE0165
:1017200001960E9447117E876D87CE0101960E9427
:101730007E048D859E85892B09F48AC2BE01635F74
:101740007F4F84E690E00E944B0B11E066EC72E064
:10175000CE0101960E948604CE0101960E94471197
:101760007E876D87CE0101960E947E048D859E85C1
:10177000892B09F4AAC2BE01635F7F4F88E790E01E
:101780000E944B0B1F5F6DED72E0CE0101960E942F
:101790008604CE0101960E9447117E876D87CE0197
:1017A00001960E947E04BE01635F7F4F8CE890E04B
:1017B0000E944B0B65EE72E0CE0101960E948604FA
:1017C000CE0101960E9447117E876D87CE0101965A
:1017D0000E947E04BE01635F7F4F80EA90E00E941A
:1017E0004B0B6DEE72E0CE0101960E948604CE0195
:1017F00001960E9447117E876D87CE0101960E9457
:101800007E04BE01635F7F4F84EB90E00E944B0B30
:1018100063EF72E0CE0101960E948604CE0101962C
:101820000E9447117E876D87CE0101960E947E043B
:10183000BE01635F7F4F8EEB90E00E944B0B123036
:1018400009F49EC02E960FB6F894DEBF0FBECDBF32
:10185000DF91CF911F91089567E172E0CE0101966B
:101860000E948604CE0101960E9447117E876D87F3
:10187000CE0101960E947E048D859E85892B09F4F8
:10188000B6C0BE01635F7F4F81E090E00E944B0BCA
:1018900011E061E572E0CE0101960E948604CE015E
:1018A00001960E9447117E876D87CE0101960E94A6
:1018B0007E048D859E85892B09F4D6C0BE01635FA9
:1018C0007F4F84E190E00E944B0B1F5F66E672E061
:1018D000CE0101960E948604CE0101960E94471116
:1018E0007E876D87CE0101960E947E048D859E8540
:1018F000892B09F4F6C0BE01635F7F4F88E290E058
:101900000E944B0B1F5F67E772E0CE0101960E94B9
:101910008604CE0101960E9447117E876D87CE0115
:1019200001960E947E048D859E85892B09F416C13F
:10193000BE01635F7F4F8CE390E00E944B0B1F5F03
:1019400069E872E0CE0101960E948604CE010196FC
:101950000E9447117E876D87CE0101960E947E040A
:101960008D859E85892B09F436C1BE01635F7F4F4B
:1019700080E590E00E944B0B1F5F153009F062CFAD
:101980006BE972E0CE0107960E94860463E372E081
:10199000CE0101960E948604BE01695F7F4FCE0191
:1019A00001960E94C604CE0101960E947E04CE01DB
:1019B00007960E947E046FEE71E0CE0107960E94AA
:1019C000860463E472E0CE0101960E948604BE01A3
:1019D000695F7F4FCE0101960E94C604CE01019639
:1019E0000E947E04CE0107960E947E042BCF60E207
:1019F00072E0CE0107960E94860463E372E0CE0196
:101A000001960E948604BE01695F7F4FCE01019658
:101A10000E94C604CE0101960E947E04CE01079664
:101A20000E947E046FEE71E0CE0107960E9486044C
:101A300063E472E0CE0101960E948604BE01695FF4
:101A40007F4FCE0101960E94C604CE0101960E94EE
:101A50007E04CE0107960E947E0465E070E080E07F
:101A600090E00E94F20215CF68E572E0CE01079681
:101A70000E94860463E372E0CE0101960E94860410
:101A8000BE01695F7F4FCE0101960E94C604CE0160
:101A900001960E947E04CE0107960E947E046FEE9E
:101AA00071E0CE0107960E94860463E472E0CE01E5
:101AB00001960E948604BE01695F7F4FCE010196A8
:101AC0000E94C604CE0101960E947E04CE010796B4
:101AD0000E947E0465E070E080E090E00E94F202E7
:101AE000F5CE6BE672E0CE0107960E94860463E3B2
:101AF00072E0CE0101960E948604BE01695F7F4FAD
:101B0000CE0101960E94C604CE0101960E947E0479
:101B1000CE0107960E947E046FEE71E0CE0107961B
:101B20000E94860463E472E0CE0101960E9486045E
:101B3000BE01695F7F4FCE0101960E94C604CE01AF
:101B400001960E947E04CE0107960E947E0465E005
:101B500070E080E090E00E94F202D5CE6CE772E087
:101B6000CE0107960E94860463E372E0CE010196DF
:101B70000E948604BE01695F7F4FCE0101960E94DC
:101B8000C604CE0101960E947E04CE0107960E94F3
:101B90007E046FEE71E0CE0107960E94860463E436
:101BA00072E0CE0101960E948604BE01695F7F4FFC
:101BB000CE0101960E94C604CE0101960E947E04C9
:101BC000CE0107960E947E0465E070E080E090E020
:101BD0000E94F202B5CE6EE872E0CE0107960E9436
:101BE000860463E372E0CE0101960E948604BE0182
:101BF000695F7F4FCE0101960E94C604CE01019617
:101C00000E947E04CE0107960E947E046FEE71E072
:101C1000CE0107960E94860463E472E0CE0101962D
:101C20000E948604BE01695F7F4FCE0101960E942B
:101C3000C604CE0101960E947E04CE0107960E9442
:101C40007E0465E070E080E090E00E94F20295CEB4
:101C500066EB72E0CE0107960E94860463E372E0B1
:101C6000CE0101960E948604BE01695F7F4FCE01BE
:101C700001960E94C604CE0101960E947E04CE0108
:101C800007960E947E046FEE71E0CE0107960E94D7
:101C9000860463E472E0CE0101960E948604BE01D0
:101CA000695F7F4FCE0101960E94C604CE01019666
:101CB0000E947E04CE0107960E947E0465E070E0DB
:101CC00080E090E00E94F20241CD6CEC72E0CE0127
:101CD00007960E94860463E372E0CE0101960E949B
:101CE0008604BE01695F7F4FCE0101960E94C60443
:101CF000CE0101960E947E04CE0107960E947E04CA
:101D00006FEE71E0CE0107960E94860463E472E0F4
:101D1000CE0101960E948604BE01695F7F4FCE010D
:101D200001960E94C604CE0101960E947E04CE0157
:101D300007960E947E0465E070E080E090E00E94DB
:101D4000F20221CD69EF72E0CE0101960E94860475
:101D5000CE0101960E9447117E876D87CE010196C4
:101D60000E947E048D859E85892BD9F1BE01635F1B
:101D70007F4F83EC90E00E944B0B11E061E173E038
:101D8000CE0101960E948604CE0101960E94471161
:101D90007E876D87CE0101960E947E048D859E858B
:101DA000892B09F45BC0BE01635F7F4F88EC90E034
:101DB0000E944B0B1F5F65E273E0CE0101960E940B
:101DC0008604CE0101960E9447117E876D87CE0161
:101DD00001960E947E04BE01635F7F4F82ED90E01A
:101DE0002CCD61E073E0CE0107960E94860463E388
:101DF00072E0CE0101960E948604BE01695F7F4FAA
:101E0000CE0101960E94C604CE0101960E947E0476
:101E1000CE0107960E947E046FEE71E0CE01079618
:101E20000E94860463E472E0CE0101960E9486045B
:101E3000BE01695F7F4FCE0101960E94C604CE01AC
:101E400001960E947E04CE0107960E947E0465E002
:101E500070E080E090E00E94F20290CF67E173E0D2
:101E6000CE0107960E94860463E372E0CE010196DC
:101E70000E948604BE01695F7F4FCE0101960E94D9
:101E8000C604CE0101960E947E04CE0107960E94F0
:101E90007E046FEE71E0CE0107960E94860463E433
:101EA00072E0CE0101960E948604BE01695F7F4FF9
:101EB000CE0101960E94C604CE0101960E947E04C6
:101EC000CE0107960E947E0465E070E080E090E01D
:101ED0000E94F20270CF0F931F938091030790919D
:101EE0000407DC01ED91FC910084F185E02D09955A
:101EF00003970CF4B6C08091030790910407DC01AE
:101F0000ED91FC910284F385E02D099580932307E0
:101F10000E94470360932407709325078093260748
:101F20009093270780912307833201F18091030763
:101F300090910407DC01ED91FC910284F385E02D82
:101F40000995809323070E9447030091240710916D
:101F500025072091260730912707601B710B820B04
:101F6000930B6536710581059105E0F28091230799
:101F7000833209F076C08091030790910407DC0159
:101F8000ED91FC910284F385E02D099580932A0759
:101F90000E944703609324077093250780932607C8
:101FA0009093270781E08093280780910307909101
:101FB0000407DC01ED91FC910084F185E02D099589
:101FC00020912A0728171906B1F0ACF00E944703A8
:101FD00000912407109125072091260730912707AB
:101FE000601B710B820B930B6536710581059105A2
:101FF000E0F21092280780912807882391F18091C0
:10200000030790910407DC01ED91FC910284F385B4
:10201000E02D099580932907803561F0843521F101
:102020008093010780912A07809302071F910F91E7
:102030000C9400008091FD069091FE06909300079D
:102040008093FF068091030790910407DC01ED91D6
:10205000FC910284F385E02D09959093FE06809310
:10206000FD061F910F910895809103079091040739
:10207000DC01ED91FC910284F385E02D0995FC01D2
:10208000FF27E333F10568F7E85BFF4E0C94F2237A
:102090007B107F10831087108B108F109310971078
:1020A0009B109F10A310A710AB10AF10B310B71068
:1020B000BB10BF10C310C710CB10CF10D310D71058
:1020C000DB10DF10E310E710EB10EF10F310F71048
:1020D000FB10FF10031107110B110F111311171132
:1020E0001B111F11231127112B112F113311371120
:1020F0003B113F1143111F910F910C9400001F9150
:102100000F910C946F0B1F910F910C9400001F9175
:102110000F910C9400001F910F910C9400001F91DF
:102120000F910C9400001F910F910C9400001F91CF
:102130000F910C9400001F910F910C9400001F91BF
:102140000F910C9400001F910F910C9400001F91AF
:102150000F910C9400001F910F910C9400001F919F
:102160000F910C9400001F910F910C9400001F918F
:102170000F910C9400001F910F910C9400001F917F
:102180000F910C9400001F910F910C9400001F916F
:102190000F910C9400001F910F910C9400001F915F
:1021A0000F910C9400001F910F910C9400001F914F
:1021B0000F910C9400001F910F910C9400001F913F
:1021C0000F910C9400001F910F910C9400001F912F
:1021D0000F910C9400001F910F910C9400001F911F
:1021E0000F910C9400001F910F910C9400001F910F
:1021F0000F910C9400001F910F910C9400001F91FF
:102200000F910C9400001F910F910C9400001F91EE
:102210000F910C9400001F910F910C9400001F91DE
:102220000F910C9400001F910F910C9400001F91CE
:102230000F910C9400001F910F910C9400001F91BE
:102240000F910C9400001F910F910C9400001F91AE
:102250000F910C9400001F910F910C9400001F919E
:102260000F910C9400001F910F910C9400001F918E
:102270000F910C9400001F910F910C9400001F917E
:102280000F910C9400001F910F910C9400000F937C
:102290001F93CF93DF93BC0185E197E00E94540424
:1022A00081E39EEDABE0B0E080931F0790932007A1
:1022B000A0932107B09322070E944703609324074D
:1022C0007093250780932607909327078091030733
:1022D00090910407DC01ED91FC910084F185E02DE3
:1022E0000995892B01F10E94470300912407109161
:1022F00025072091260730912707601B710B820B61
:10230000930B693E73408105910508F407C181E391
:102310009EEDABE0B0E080931F0790932007A09361
:102320002107B093220761E373E080910307909146
:1023300004070E94B70465E177E08091030790915C
:1023400004070E948D0063EF71E080910307909174
:1023500004070E94B7040E94470360932407709308
:102360002507809326079093270780910307909174
:102370000407DC01ED91FC910084F185E02D0995C5
:102380000897FCF40E944703009124071091250749
:102390002091260730912707601B710B820B930B4E
:1023A000613971408105910500F381E39EEDABE059
:1023B000B0E080931F0790932007A0932107B0936C
:1023C00022078091030790910407DC01ED91FC91B5
:1023D0000084F185E02D099508970CF49AC080914E
:1023E000030790910407DC01ED91FC910284F385D1
:1023F000E02D0995809323070E94470360932407EB
:1024000070932507809326079093270780912307D1
:102410008137C9F18091030790910407DC01ED91A8
:10242000FC910084F185E02D0995892B69F080915C
:10243000030790910407DC01ED91FC910284F38580
:10244000E02D0995809323070E94470300912407FC
:10245000109125072091260730912707601B710BEB
:10246000820B930B653671058105910578F281E346
:102470009EEDABE0B0E080931F0790932007A09300
:102480002107B093220780912307813709F041C0CB
:10249000CBE1D7E08091030790910407DC01ED9137
:1024A000FC910284F385E02D09958993B7E0CF3143
:1024B000DB0781F70E944703609324077093250789
:1024C0008093260790932707D0E0C0E08091030710
:1024D00090910407DC01ED91FC910284F385E02DDD
:1024E00009958F3FB1F421960E944703009124077C
:1024F000109125072091260730912707601B710B4B
:10250000820B930B693E73408105910550F0239730
:1025100059F081E39EEDABE0B0E01AC00E946B0F72
:10252000D5CEC330D10591F680911D0790911E073D
:10253000B0E0A0E0BA2FA92F982F882720911C0780
:10254000822BBA2FA92F982F882720911B07822B27
:1025500080931F0790932007A0932107B093220731
:1025600060911F07709120078091210790912207A9
:10257000DF91CF911F910F910895CF92DF92EF924B
:10258000FF921F93CF93DF93CDB7DEB72C970FB693
:10259000F894DEBF0FBECDBF67E172E0CE010196B9
:1025A0000E948604CE0101960E9447116B01709330
:1025B0005F0560935E05CE0101960E947E0481E076
:1025C000C81AD1088EE6C816D104B8F166E373E0E4
:1025D000CE0101960E94860463E372E0CE01079665
:1025E0000E948604BE016F5F7F4FCE0107960E9456
:1025F000C604CE0107960E947E04CE0101960E9479
:102600007E046FEE71E0CE0101960E94860463E4C1
:1026100072E0CE0107960E948604BE016F5F7F4F75
:10262000CE0107960E94C604CE0107960E947E0442
:10263000CE0101960E947E04AFCF65E070E080E09D
:1026400090E00E94F20261E572E0CE0101960E94E4
:102650008604CE0101960E9447117B0170935D05AF
:1026600060935C05CE0101960E947E04EF28B9F5C7
:1026700063E473E0CE0101960E94860463E372E096
:10268000CE0107960E948604BE016F5F7F4FCE0188
:1026900007960E94C604CE0107960E947E04CE01D2
:1026A00001960E947E046FEE71E0CE0101960E94B9
:1026B000860463E472E0CE0107960E948604BE01A0
:1026C0006F5F7F4FCE0107960E94C604CE0107962A
:1026D0000E947E04CE0101960E947E04B4CF65E084
:1026E00070E080E090E00E94F20266E672E0CE01C7
:1026F00001960E948604CE0101960E9447117093B4
:102700005B0560935A05CE0101960E947E0480917C
:102710005A0590915B05892BB9F560E573E0CE0110
:1027200001960E94860463E372E0CE0107960E9440
:102730008604BE016F5F7F4FCE0107960E94C604DC
:10274000CE0107960E947E04CE0101960E947E046F
:102750006FEE71E0CE0101960E94860463E472E0A0
:10276000CE0107960E948604BE016F5F7F4FCE01A7
:1027700007960E94C604CE0107960E947E04CE01F1
:1027800001960E947E04B1CF80915A0590915B051D
:1027900065E070E080E090E00E94F20267E772E09E
:1027A000CE0101960E948604CE0101960E94471137
:1027B000162F60935905CE0101960E947E041111D7
:1027C00037C06DE573E0CE0101960E94860463E395
:1027D00072E0CE0107960E948604BE016F5F7F4FB4
:1027E000CE0107960E94C604CE0107960E947E0481
:1027F000CE0101960E947E046FEE71E0CE0101963B
:102800000E94860463E472E0CE0107960E9486046B
:10281000BE016F5F7F4FCE0107960E94C604CE01B6
:1028200007960E947E04CE0101960E947E04B6CFD8
:1028300065E070E080E090E00E94F20269E872E0FA
:10284000CE0101960E948604CE0101960E94471196
:10285000162F60935805CE0101960E947E04111137
:1028600037C06AE673E0CE0101960E94860463E3F6
:1028700072E0CE0107960E948604BE016F5F7F4F13
:10288000CE0107960E94C604CE0107960E947E04E0
:10289000CE0101960E947E046FEE71E0CE0101969A
:1028A0000E94860463E472E0CE0107960E948604CB
:1028B000BE016F5F7F4FCE0107960E94C604CE0116
:1028C00007960E947E04CE0101960E947E04B6CF38
:1028D00065E070E080E090E00E94F2026DED72E051
:1028E000CE0101960E948604CE0101960E944711F6
:1028F00021E0672B682B692B09F420E02093610508
:10290000CE0101960E947E0465E070E080E090E0D8
:102910000E94F20265EE72E0CE0101960E948604EA
:10292000CE0101960E944711CE0101960E947E04BD
:1029300065E070E080E090E00E94F2026DEE72E0EF
:10294000CE0101960E948604CE0101960E94471195
:10295000162F60936505CE0101960E947E041F31FB
:10296000B8F167E773E0CE0101960E94860463E345
:1029700072E0CE0107960E948604BE016F5F7F4F12
:10298000CE0107960E94C604CE0107960E947E04DF
:10299000CE0101960E947E046FEE71E0CE01019699
:1029A0000E94860463E472E0CE0107960E948604CA
:1029B000BE016F5F7F4FCE0107960E94C604CE0115
:1029C00007960E947E04CE0101960E947E04B6CF37
:1029D00065E070E080E090E00E94F20263EF72E058
:1029E000CE0101960E948604CE0101960E944711F5
:1029F000162F60936605CE0101960E947E041A3060
:102A0000B8F164E873E0CE0101960E94860463E3A6
:102A100072E0CE0107960E948604BE016F5F7F4F71
:102A2000CE0107960E94C604CE0107960E947E043E
:102A3000CE0101960E947E046FEE71E0CE010196F8
:102A40000E94860463E472E0CE0107960E94860429
:102A5000BE016F5F7F4FCE0107960E94C604CE0174
:102A600007960E947E04CE0101960E947E04B6CF96
:102A700065E070E080E090E00E94F2026EEA72E0B1
:102A8000CE0101960E948604CE0101960E94471154
:102A900060936205CE0101960E947E0466EC72E0AE
:102AA000CE0101960E948604CE0101960E94471134
:102AB000162F60936005CE0101960E947E048091DE
:102AC00062058A3010F41A30B8F161E973E0CE0182
:102AD00001960E94860463E372E0CE0107960E948D
:102AE0008604BE016F5F7F4FCE0107960E94C60429
:102AF000CE0107960E947E04CE0101960E947E04BC
:102B00006FEE71E0CE0101960E94860463E472E0EC
:102B1000CE0107960E948604BE016F5F7F4FCE01F3
:102B200007960E94C604CE0107960E947E04CE013D
:102B300001960E947E04A2CF65E070E080E090E004
:102B40000E94F20269EF72E0CE0101960E948604B3
:102B5000CE0101960E94471160935705CE01019660
:102B60000E947E0461E173E0CE0101960E9486041A
:102B7000CE0101960E944711162F60935605CE0193
:102B800001960E947E04809157058B3F10F41D33FF
:102B9000B8F16FE973E0CE0101960E94860463E309
:102BA00072E0CE0107960E948604BE016F5F7F4FE0
:102BB000CE0107960E94C604CE0107960E947E04AD
:102BC000CE0101960E947E046FEE71E0CE01019667
:102BD0000E94860463E472E0CE0107960E94860498
:102BE000BE016F5F7F4FCE0107960E94C604CE01E3
:102BF00007960E947E04CE0101960E947E04A2CF19
:102C000065E070E080E090E00E94F20265E273E02F
:102C1000CE0101960E948604CE0101960E944711C2
:102C2000CE0101960E947E0465E070E080E090E0B5
:102C30000E94F2026DEA73E0CE0101960E948604C2
:102C4000CE0101960E944711162F60936405CE01B4
:102C500001960E947E041B3080F06DEA73E0CE0185
:102C600001960E948604CE0101960E94471160934E
:102C70006405CE0101960E947E048091FD0690912C
:102C8000FE06909300078093FF0610922D052C9668
:102C90000FB6F894DEBF0FBECDBFDF91CF911F916D
:102CA000FF90EF90DF90CF9008951F920F920FB694
:102CB0000F9211242F933F934F935F936F937F93C2
:102CC0008F939F93AF93BF93EF93FF9380E696E02C
:102CD0000E941901FF91EF91BF91AF919F918F9148
:102CE0007F916F915F914F913F912F910F900FBE08
:102CF0000F901F9018951F920F920FB60F921124EC
:102D00002F938F939F93EF93FF93E0917006F09131
:102D100071068081E0917606F091770682FD1BC0F6
:102D20009081809179068F5F8F7320917A06821748
:102D300041F0E0917906F0E0E05AF94F958F8093E9
:102D40007906FF91EF919F918F912F910F900FBE78
:102D50000F901F9018958081F4CF1F920F920FB69D
:102D60000F9211242F933F938F939F93AF93BF9311
:102D700080910B0590910C05A0910D05B0910E0569
:102D800030910A0523E0230F2D3758F50196A11D38
:102D9000B11D20930A0580930B0590930C05A09319
:102DA0000D05B0930E0580910F0590911005A0912F
:102DB0001105B09112050196A11DB11D80930F055B
:102DC00090931005A0931105B0931205BF91AF9198
:102DD0009F918F913F912F910F900FBE0F901F9059
:102DE000189526E8230F0296A11DB11DD2CF1F9280
:102DF0000F920FB60F921124AF92BF92CF92DF9233
:102E0000EF92FF920F931F932F933F934F935F93F4
:102E10006F937F938F939F93AF93BF93CF93DF93E2
:102E2000EF93FF93E0900805F09009052FEFE21A69
:102E3000F20AF0920905E092080510920705109237
:102E400006050091060510910705809144069091B2
:102E50004506081719070CF082C0E801CC0FDD1FEA
:102E6000FE01E452FA4F80819181019709F06EC012
:102E7000FE01EA50FA4F808191810196918380830F
:102E8000FE01EE53FA4F80819181019771F5FE01A9
:102E9000E65DF94F80819181FE01E257FA4F208172
:102EA00031818217930720F0F801E750FB4F108221
:102EB000FE01E855FA4F208131812817390728F0A3
:102EC00021E0F801E750FB4F2083E9E1EE16F10421
:102ED00061F4F801E750FB4F2081FE01E65DF94FF8
:102EE0002223D9F1019691838083FE01EA50FA4FA3
:102EF00080819181FE01E65DF94FC080D1808C1503
:102F00009D0540F0FE01E05FF94F8081918161E015
:102F10000E94D101CE018A509A4F5C01FC01808150
:102F20009181FFEFCF1ADF0A8C159D0578F0FE0125
:102F3000E05FF94F8081918160E00E94D101C4522D
:102F4000DA4F19821882F501118210820F5F1F4F2C
:102F5000109307050093060574CF0197C4CFF9E1DC
:102F6000EF16F10434F081E090E09093090580932E
:102F7000080587B3866087BBFF91EF91DF91CF9102
:102F8000BF91AF919F918F917F916F915F914F9181
:102F90003F912F911F910F91FF90EF90DF90CF9075
:102FA000BF90AF900F900FBE0F901F9018951F927B
:102FB0000F920FB60F9211242F933F934F935F936D
:102FC0008F939F93EF93FF9390E080E020914406CE
:102FD000309145068217930794F49C01220F331F0A
:102FE000F901ED5EFA4F408151814130510529F4DC
:102FF00024523A4FF901518340830196E7CFFF9164
:10300000EF919F918F915F914F913F912F910F90F1
:103010000FBE0F901F9018950F931F93CF93DF93C0
:10302000C0E6D6E01B821A8288EE93E0A0E0B0E012
:103030008C839D83AE83BF8381EE91E099838883E7
:1030400085EC90E09D878C8784EC90E09F878E874D
:1030500080EC90E0998B888B81EC90E09B8B8A8B45
:1030600082EC90E09D8B8C8B86EC90E09F8B8E8B1E
:10307000198E1A8E1B8E1C8E01E317E086E0F80174
:10308000808385E0828384E0818361E085E00E9423
:10309000870261E0F80180810E94870260E0F80108
:1030A00081810E94870261E0F80182810E94D10142
:1030B00060EE73E085E097E00E94860460EE73E0C6
:1030C0008FE097E00E94860460EE73E085E197E070
:1030D0000E94860460EE73E08BE297E00E94860413
:1030E000D0930407C0930307E9E5F6E080E092E09F
:1030F000918380838EE086838DEC9CECACECBDE309
:1031000082839383A483B583EAE4F6E029E030E088
:1031100032872187809144069091450601969093CD
:10312000450680934406809144069091450680911F
:1031300044069091450601979183808382E090E058
:10314000938382831482E0914406F0914506EE0F4A
:10315000FF1FE85DF94F81E090E091838083E0916B
:103160004406F0914506EE0FFF1FE25FF94F3183F1
:103170002083E0914406F0914506EE0FFF1FEC50CE
:10318000FA4F11821082E0914406F0914506EE0F4D
:10319000FF1FE652FA4F11821082E0914406F0912F
:1031A0004506EE0FFF1FE054FA4F11821082E091A6
:1031B0004406F0914506EE0FFF1FEA55FA4F1182C3
:1031C0001082E0914406F0914506EE0FFF1FE45790
:1031D000FA4F9183808361E089E00E9487020E9418
:1031E0004703609346067093470680934806909382
:1031F0004906DF91CF911F910F910895CF93DF93EF
:10320000CDB7DEB72D970FB6F894DEBF0FBECDBF9A
:10321000789484B5826084BD84B5816084BD85B5B1
:10322000826085BD85B5816085BD80916E008160BD
:1032300080936E0010928100809181008260809363
:103240008100809181008160809381008091800065
:103250008160809380008091B10084608093B10090
:103260008091B00081608093B00080917A0084608A
:1032700080937A0080917A00826080937A008091B6
:103280007A00816080937A0080917A0080688093D0
:103290007A001092C100E0917006F091710682E010
:1032A0008083E0916C06F0916D061082E0916E06CD
:1032B000F0916F0680E1808310927806E0917406A9
:1032C000F091750686E08083E0917206F0917306B6
:1032D000808180618083E0917206F0917306808125
:1032E00088608083E0917206F09173068081806827
:1032F0008083E0917206F091730680818F7D8083D8
:1033000080914A0690914B06880F991FFC01EE535D
:10331000FA4F118210828D5E9A4F21E030E0FC015D
:10332000318320838091B0001092B0008091B10071
:103330001092B1008091700082608093700089E0EB
:103340008093B1008FEF8093B30080917000816013
:10335000809370008091690010926900E89A8091D2
:10336000690083608093690081E690E00E942503F4
:103370004AE0E42EF12C10E000E080915F060E940C
:10338000B802080F191FF1E0EF1AF108B1F7C801F0
:103390006AE070E00E94DE2370935A06609359063B
:1033A00061E088E00E94870260E08EE00E94870270
:1033B000289864EF71E080E090E00E94F20290E0D3
:1033C00080E00E94A5218C3F31F481E090E00E94D2
:1033D000A5218111ABC068EB73E080E696E00E9406
:1033E000B7046EED73E080E696E00E94B7048CEFC0
:1033F00090E09A838983BE016F5F7F4F90E080E009
:103400000E944B0B85E690E09A838983BE016F5F33
:103410007F4F81E090E00E944B0B87E090E09A8321
:103420008983BE016F5F7F4F84E190E00E944B0B68
:1034300086E292E09A838983BE016F5F7F4F88E2C4
:1034400090E00E944B0B85E090E09A838983BE0157
:103450006F5F7F4F8CE390E00E944B0B02E010E027
:103460001A830983BE016F5F7F4F80E590E00E9461
:103470004B0B1A821982BE016F5F7F4F8CE890E080
:103480000E944B0B89E090E09A838983BE016F5FB5
:103490007F4F84E690E00E944B0B86E090E09A8399
:1034A0008983BE016F5F7F4F88E790E00E944B0BDE
:1034B0001A821982BE016F5F7F4F80EA90E00E94FE
:1034C0004B0B88E090E09A838983BE016F5F7F4F4A
:1034D00084EB90E00E944B0B1A830983BE016F5F5F
:1034E0007F4F8EEB90E00E944B0B86EE90E09A832C
:1034F0008983BE016F5F7F4F83EC90E00E944B0B8E
:1035000082E390E09A838983BE016F5F7F4F88ECEE
:1035100090E00E944B0B81E090E09A838983BE018A
:103520006F5F7F4F82ED90E00E944B0BBE01695FA1
:103530007F4F81E090E00E9406040F8118850115FD
:10354000110529F167E172E0CE0101960E9486041F
:10355000A80170E060E0CE0101960E941405CE0142
:1035600001960E947E04CF80D884F12CE12C61EE7C
:1035700073E0CE0101960E948604B701A601CE0138
:1035800001960E941405CE0101960E947E04BE01A0
:10359000695F7F4F84E190E00E9406040F811885E7
:1035A0000115110529F161E572E0CE0101960E9435
:1035B0008604A80170E060E0CE0101960E94140527
:1035C000CE0101960E947E04CF80D884F12CE12C9C
:1035D00061EF73E0CE0101960E948604B701A60157
:1035E000CE0101960E941405CE0101960E947E0430
:1035F000BE01695F7F4F88E290E00E9406040F8160
:1036000018850115110529F166E672E0CE010196D3
:103610000E948604A80170E060E0CE0101960E943D
:103620001405CE0101960E947E04CF80D884F12C2F
:10363000E12C61E074E0CE0101960E948604B7019E
:10364000A601CE0101960E941405CE0101960E94AA
:103650007E04BE01695F7F4F8CE390E00E94060408
:103660000F8118850230110528F167E772E0CE015D
:1036700001960E948604A80170E060E0CE010196E8
:103680000E941405CE0101960E947E04CF80D8844A
:10369000F12CE12C61E174E0CE0101960E948604D8
:1036A000B701A601CE0101960E941405CE01019634
:1036B0000E947E04BE01695F7F4F80E590E00E941A
:1036C00006040F8118850230110528F169E872E0BF
:1036D000CE0101960E948604A80170E060E0CE0150
:1036E00001960E941405CE0101960E947E04CF80AF
:1036F000D884F12CE12C61E274E0CE0101960E94A5
:103700008604B701A601CE0101960E941405CE01E0
:1037100001960E947E04BE01695F7F4F84E690E0BF
:103720000E9406040F8118850230110528F16EEA07
:1037300072E0CE0101960E948604A80170E060E06C
:10374000CE0101960E941405CE0101960E947E04CE
:10375000CF80D884F12CE12C61E374E0CE01019696
:103760000E948604B701A601CE0101960E941405AD
:10377000CE0101960E947E04BE01695F7F4F88E7FB
:1037800090E00E9406040F8118850230110528F18F
:1037900066EC72E0CE0101960E948604A80170E0FA
:1037A00060E0CE0101960E941405CE0101960E94B0
:1037B0007E04CF80D884F12CE12C61E474E0CE014A
:1037C00001960E948604B701A601CE0101960E94CF
:1037D0001405CE0101960E947E04BE01695F7F4FF1
:1037E0008CE890E00E9406040F81188502301105D4
:1037F00028F56DED72E0CE0101960E948604A801C5
:1038000070E060E0CE0101960E941405CE010196A1
:103810000E947E04CF80D884F12CE12C61E574E015
:10382000CE0101960E948604B701A601CE01019641
:103830000E941405CE0101960E947E04BE01695FBC
:103840007F4F80EA90E00E9406040F8118850230C5
:10385000110528F565EE72E0CE0101960E948604FE
:10386000A80170E060E0CE0101960E941405CE012F
:1038700001960E947E04CF80D884F12CE12C62E670
:1038800074E0CE0101960E948604B701A601CE0124
:1038900001960E941405CE0101960E947E04BE018D
:1038A000695F7F4F84EB90E00E9406040F811885CA
:1038B0000B30110528F56DEE72E0CE0101960E94E5
:1038C0008604A80170E060E0CE0101960E94140514
:1038D000CE0101960E947E04CF80D884F12CE12C89
:1038E00063E774E0CE0101960E948604B701A60149
:1038F000CE0101960E941405CE0101960E947E041D
:10390000BE01695F7F4F8EEB90E00E9406040F813D
:1039100018850930110528F563EF72E0CE01019694
:103920000E948604A80170E060E0CE0101960E942A
:103930001405CE0101960E947E04CF80D884F12C1C
:10394000E12C63E874E0CE0101960E948604B70181
:10395000A601CE0101960E941405CE0101960E9497
:103960007E04BE01695F7F4F83EC90E00E940604F5
:103970000F8118850A3F110588F469EF72E0CE01C6
:1039800001960E948604A80170E060E0CE010196D5
:103990000E941405CE0101960E947E04BE01695F5B
:1039A0007F4F88EC90E00E9406040F8118850D334C
:1039B000110588F463E974E0CE0101960E94860443
:1039C000A80170E060E0CE0101960E941405CE01CE
:1039D00001960E947E04BE01695F7F4F82ED90E0F8
:1039E0000E94060481E090E0909300078093FF0618
:1039F00065E070E080E090E00E94F20281E0809358
:103A00002D0583E0D82E90E0E92E90E0F92E2AE0F3
:103A1000C22E80912D0581110E94BD120E946B0F54
:103A20000E944703009146061091470620914806E0
:103A300030914906601B710B820B930B6F357140FF
:103A40008105910568F10E945402609344057093CA
:103A50004505809346059093470560914405709114
:103A60004505809146059091470520E030E0A90189
:103A70000E94812087FFCCC10E94540260934405BC
:103A80007093450580934605909347050E94470330
:103A900060934606709347068093480690934906C4
:103AA00080916405833009F444C208F0BAC18130C2
:103AB00009F46AC2823009F46AC20E94B109809195
:103AC0004E0581110DC00E94470360934A05709313
:103AD0004B0580934C0590934D0581E080934E05F6
:103AE0000E94470300914A0510914B0520914C0517
:103AF00030914D05601B710B820B930B6F3571403C
:103B00008105910508F44BC00091480510914905C5
:103B100069EB74E0CE0101960E948604A80170E072
:103B200060E0CE0101960E941405CE0101960E942C
:103B30007E048090440590904505A0904605B09085
:103B4000470560915C0570915D0590E080E00E9402
:103B500086209B01AC01C501B4010E944D220E9448
:103B60002C234B01770FAA08BB0865EC74E0CE014B
:103B700001960E948604B501A401CE0101960E941F
:103B80001405CE0101960E947E040E9447036093B3
:103B90004A0570934B0580934C0590934D052091F9
:103BA000FD063091FE068091FF06909100072817D0
:103BB000390709F421C16DED72E0CE0101960E9432
:103BC0008604CE0101960E94471121E0672B682BE5
:103BD000692B09F420E020936105CE0101960E9433
:103BE0007E0465EE72E0CE0101960E948604CE014D
:103BF00001960E944711CE0101960E947E046DEE4F
:103C000072E0CE0101960E948604CE0101960E94C8
:103C1000471160936505CE0101960E947E0463EF13
:103C200072E0CE0101960E948604CE0101960E94A8
:103C3000471160936605CE0101960E947E046EEAEC
:103C400072E0CE0101960E948604CE0101960E9488
:103C5000471160936205CE0101960E947E0466ECD6
:103C600072E0CE0101960E948604CE0101960E9468
:103C7000471160936005CE0101960E947E0461EDBC
:103C800074E0CE0101960E948604CE0101960E9446
:103C90004711CE0101960E947E046CED74E0CE01C6
:103CA00001960E948604CE0101960E944711CE0122
:103CB00001960E947E0467E172E0CE0101960E94A7
:103CC0008604CE0101960E94471170935F056093B0
:103CD0005E05CE0101960E947E0461E572E0CE0190
:103CE00001960E948604CE0101960E9447117093AE
:103CF0005D0560935C05CE0101960E947E0466E638
:103D000072E0CE0101960E948604CE0101960E94C7
:103D1000471170935B0560935A05CE0101960E948E
:103D20007E0467E772E0CE0101960E948604CE0110
:103D300001960E94471160935905CE0101960E9499
:103D40007E0469E872E0CE0101960E948604CE01ED
:103D500001960E94471160935805CE0101960E947A
:103D60007E0469EF72E0CE0101960E948604CE01C6
:103D700001960E94471160935705CE0101960E945B
:103D80007E0461E173E0CE0101960E948604CE01BB
:103D900001960E94471160935605CE0101960E943C
:103DA0007E046DEA73E0CE0101960E948604CE0186
:103DB00001960E944711162F60936405CE0101966B
:103DC0000E947E041B3080F06DEA73E0CE01019604
:103DD0000E948604CE0101960E94471160936405FB
:103DE000CE0101960E947E048091FD069091FE0610
:103DF000909300078093FF06E114F10409F409CEC3
:103E00000E940501882309F404CE0E94000001CE1F
:103E10008091440590914505A0914605B0914705D4
:103E200035CE843009F4ACC0863009F046CE80919E
:103E3000FD069091FE06059709F041CE80913C0564
:103E400081110DC00E9447036093380570933905B6
:103E500080933A0590933B0581E080933C058091E7
:103E60003005811113C060EA74E0CE0101960E9412
:103E70008604CE0101960E94471160932F0581E0D0
:103E800080933005CE0101960E947E040E94D803E3
:103E9000882309F47FC080912E0581117BC0009199
:103EA0002F058090380590903905A0903A05B09084
:103EB0003B0580910301081708F477C088E290E081
:103EC0000E9425030E944703681979098A099B0902
:103ED000613C744D8140910508F44BC00D9D8001FB
:103EE000112460EA74E0CE010196043611050CF04D
:103EF000AFC00E948604A801110F660B770BCE019C
:103F000001960E941405CE0101960E947E049091B4
:103F10002F05892F880F890F809303010E94470383
:103F2000609338057093390580933A0590933B056B
:103F300020C08091FD069091FE060297D1F469E9B8
:103F400074E0CE0101960E948604CE0101960E9483
:103F500047116D87CE0101960E947E040E94D8030E
:103F6000882351F081E00E9488058D8590E00E94B1
:103F700025030E94BA05A3CD80E00E948805F9CFF1
:103F800080916305811103C00E944F0798CD0E9464
:103F9000480895CD0E94D80381116CC010922F055E
:103FA000C092030110922E05B9CF8091020188239F
:103FB00039F182E390E00E9425030E9447036819CB
:103FC00079098A099B09653F71408105910588F24D
:103FD000043618F081E080932E051092020160EA09
:103FE00074E0CE0101960E948604CE0101960E94E3
:103FF000471160932F05CE0101960E947E048ECF5B
:1040000080E390E00E9425030E9447036819790924
:104010008A099B09693873418105910508F4A9CF84
:1040200081E0809302010F5F00932F05043608F0B2
:1040300075CF60EA74E0CE0101960E948604402F9D
:1040400050E070E060E0CE0101960E941405D3CFED
:104050000E94860444E650E060E070E0CE010196E4
:104060000E941405CE0101960E947E0481E0809397
:104070002E054DCF80912E05882309F48FCF88E23D
:1040800090E00E9425030E9447030091380510919B
:10409000390520913A0530913B05601B710B820B6D
:1040A000930B693E73408105910508F462CF67EA7E
:1040B00074E0CE0107960E94860461EB74E0CE01A5
:1040C00001960E948604BE01695F7F4FCE01019672
:1040D0000E94C604CE0101960E947E04CE0107967E
:1040E0008CCF8BE297E00E947E0485E197E00E94EE
:1040F0007E048FE097E00E947E0485E097E00C94B8
:104100007E040E94C32008F481E00895E89409C069
:1041100097FB3EF490958095709561957F4F8F4FFA
:104120009F4F9923A9F0F92F96E9BB279395F69510
:10413000879577956795B795F111F8CFFAF4BB0F8E
:1041400011F460FF1BC06F5F7F4F8F4F9F4F16C0F2
:10415000882311F096E911C0772321F09EE8872F7C
:10416000762F05C0662371F096E8862F70E060E038
:104170002AF09A95660F771F881FDAF7880F9695B1
:10418000879597F90895990F0008550FAA0BE0E855
:10419000FEEF16161706E807F907C0F01216130609
:1041A000E407F50798F0621B730B840B950B39F449
:1041B0000A2661F0232B242B252B21F408950A26AF
:1041C00009F4A140A6958FEF811D811D08950E94DD
:1041D000FA200C946B210E945D2138F00E9464212A
:1041E00020F0952311F00C9454210C945A211124A1
:1041F0000C949F210E947C2170F3959FC1F3950F31
:1042000050E0551F629FF001729FBB27F00DB11D5A
:10421000639FAA27F00DB11DAA1F649F6627B00DEA
:10422000A11D661F829F2227B00DA11D621F739FD3
:10423000B00DA11D621F839FA00D611D221F749FE1
:104240003327A00D611D231F849F600D211D822F28
:10425000762F6A2F11249F5750409AF0F1F088234F
:104260004AF0EE0FFF1FBB1F661F771F881F91507C
:104270005040A9F79E3F510580F00C9454210C94B6
:104280009F215F3FE4F3983ED4F386957795679539
:10429000B795F795E7959F5FC1F7FE2B880F911DA6
:1042A0009695879597F9089597F99F6780E870E04C
:1042B00060E008959FEF80EC089500240A9416169C
:1042C000170618060906089500240A941216130604
:1042D000140605060895092E0394000C11F4882392
:1042E00052F0BB0F40F4BF2B11F460FF04C06F5FAE
:1042F0007F4F8F4F9F4F089557FD9058440F551F84
:1043000059F05F3F71F04795880F97FB991F61F057
:104310009F3F79F087950895121613061406551FCE
:10432000F2CF4695F1DF08C0161617061806991F3A
:10433000F1CF86957105610508940895E894BB272F
:1043400066277727CB0197F90895F999FECF92BD9B
:1043500081BDF89A992780B50895262FF999FECF47
:104360001FBA92BD81BD20BD0FB6F894FA9AF99A92
:104370000FBE01960895052E97FB1EF400940E942F
:10438000D22157FD07D00E941C2207FC03D04EF417
:104390000C94D22150954095309521953F4F4F4F29
:1043A0005F4F089590958095709561957F4F8F4FE1
:1043B0009F4F08950E943E22A59F900DB49F900D9F
:1043C000A49F800D911D112408952F923F924F922A
:1043D0005F926F927F928F929F92AF92BF92CF9295
:1043E000DF92EF92FF920F931F93CF93DF93CDB79E
:1043F000DEB7CA1BDB0B0FB6F894DEBF0FBECDBF16
:1044000009942A88398848885F846E847D848C84E6
:104410009B84AA84B984C884DF80EE80FD800C81EF
:104420001B81AA81B981CE0FD11D0FB6F894DEBFD2
:104430000FBECDBFED010895A1E21A2EAA1BBB1B32
:10444000FD010DC0AA1FBB1FEE1FFF1FA217B30760
:10445000E407F50720F0A21BB30BE40BF50B661F76
:10446000771F881F991F1A9469F76095709580953A
:1044700090959B01AC01BD01CF010895A29FB001B1
:10448000B39FC001A39F700D811D1124911DB29F88
:10449000700D811D1124911D08955058BB27AA2726
:1044A0000E9465220C946B210E945D2138F00E94CD
:1044B000642120F039F49F3F19F426F40C945A211A
:1044C0000EF4E095E7FB0C945421E92F0E947C2127
:1044D00058F3BA17620773078407950720F079F439
:1044E000A6F50C949E210EF4E0950B2EBA2FA02D6C
:1044F0000B01B90190010C01CA01A0011124FF2791
:10450000591B99F0593F50F4503E68F11A16F0408B
:10451000A22F232F342F4427585FF3CF469537958A
:104520002795A795F0405395C9F77EF41F16BA0B4F
:10453000620B730B840BBAF09150A1F0FF0FBB1FFD
:10454000661F771F881FC2F70EC0BA0F621F731F46
:10455000841F48F4879577956795B795F7959E3FA3
:1045600008F0B0CF9395880F08F09927EE0F979534
:10457000879508950E94CE220C946B210E9464219D
:1045800058F00E945D2140F029F45F3F29F00C941F
:10459000542151110C949F210C945A210E947C218A
:1045A00068F39923B1F3552391F3951B550BBB2762
:1045B000AA2762177307840738F09F5F5F4F220FA7
:1045C000331F441FAA1FA9F335D00E2E3AF0E0E89E
:1045D00032D091505040E695001CCAF72BD0FE2FE8
:1045E00029D0660F771F881FBB1F2617370748077C
:1045F000AB07B0E809F0BB0B802DBF01FF27935834
:104600005F4F3AF09E3F510578F00C9454210C9482
:104610009F215F3FE4F3983ED4F3869577956795A5
:10462000B795F7959F5FC9F7880F911D9695879568
:1046300097F90895E1E0660F771F881FBB1F621787
:1046400073078407BA0720F0621B730B840BBA0B45
:10465000EE1F88F7E09508950E9433236894B11106
:104660000C949F2108950E94842188F09F5798F010
:10467000B92F9927B751B0F0E1F0660F771F881F67
:10468000991F1AF0BA95C9F714C0B13091F00E9481
:104690009E21B1E008950C949E21672F782F8827E2
:1046A000B85F39F0B93FCCF3869577956795B395A8
:1046B000D9F73EF490958095709561957F4F8F4F17
:1046C0009F4F08950E94C32008F48FEF089519F4B6
:1046D00016F40C945A210C94AD230E948421B8F353
:1046E0009923C9F3B6F39F57550B87FF0E94BB234D
:1046F0000024A0E640EA900180585695979528F44A
:10470000805C660F771F881F20F026173707480741
:1047100030F4621B730B840B202931294A2BA69598
:1047200017940794202531254A2758F7660F771FDD
:10473000881F20F026173707480730F4620B730BE9
:10474000840B200D311D411DA09581F7B901842FE7
:104750009158880F9695879508959F3F31F0915015
:1047600020F4879577956795B795880F911D969555
:10477000879597F9089591505040660F771F881FCD
:10478000D2F70895DB018F939F930E94DA21BF91A6
:10479000AF91A29F800D911DA39F900DB29F900D90
:1047A00011240895991B79E004C0991F961708F009
:1047B000961B881F7A95C9F780950895AA1BBB1B85
:1047C00051E107C0AA1FBB1FA617B70710F0A61B11
:1047D000B70B881F991F5A95A9F780959095BC0132
:1047E000CD010895EE0FFF1F0590F491E02D09947F
:1047F0000E943E22332312F48A1B9B0B0C9402244A
:104800000E943E22B7FF0895821B930B08950F93D9
:104810001F93CF93DF938230910510F482E090E0F4
:10482000E0913607F091370730E020E0B0E0A0E0FB
:10483000309799F42115310509F44AC0281B390B2A
:1048400024303105D8F58A819B816115710589F184
:10485000FB0193838283FE0111C04081518102815B
:10486000138148175907E0F04817590799F4109732
:1048700061F012960C93129713961C933296CF0107
:10488000DF91CF911F910F910895009336071093F8
:104890003707F4CF2115310551F04217530738F08F
:1048A000A901DB019A01BD01DF01F801C1CFEF01D0
:1048B000F9CF9093370780933607CDCFFE01E20FF3
:1048C000F31F819391932250310939832883D7CFE5
:1048D0002091340730913507232B41F420910701B3
:1048E000309108013093350720933407209105015A
:1048F000309106012115310541F42DB73EB74091A5
:10490000090150910A01241B350BE0913407F09105
:104910003507E217F307A0F42E1B3F0B28173907C2
:1049200078F0AC014E5F5F4F2417350748F04E0F0B
:104930005F1F5093350740933407819391939FCF26
:10494000F0E0E0E09CCFCF93DF930097E9F0FC012B
:10495000329713821282A0913607B0913707ED018A
:1049600030E020E01097A1F420813181820F931F65
:1049700020913407309135072817390709F061C0B5
:10498000F0933507E0933407DF91CF910895EA0162
:10499000CE17DF07E8F54A815B819E01411551057D
:1049A000B1F7E901FB83EA8349915991C40FD51FFF
:1049B000EC17FD0761F4808191810296840F951FA9
:1049C000E90199838883828193819B838A83F0E0C4
:1049D000E0E012968D919C9113970097B9F52D9177
:1049E0003C911197CD010296820F931F20913407BD
:1049F000309135072817390739F6309751F510925D
:104A0000370710923607B0933507A0933407BCCF11
:104A1000D383C28340815181840F951FC817D90762
:104A200061F44E5F5F4F88819981480F591F518310
:104A300040838A819B81938382832115310509F00C
:104A4000B0CFF0933707E09336079ECFFD01DC012E
:104A5000C0CF13821282D7CFB0E0A0E0E2E3F5E24C
:104A60000C94E7218C01009751F4CB010E9407249C
:104A70008C01C801CDB7DEB7E0E10C940322FC0144
:104A8000E60FF71F9C0122503109E217F30708F4E3
:104A90009DC0D901CD91DC911197C617D70798F029
:104AA000C530D10530F3CE0104978617970708F378
:104AB000C61BD70B2297C193D1936D937C93CF01E3
:104AC0000E94A324D6CF5B01AC1ABD0A4C018C0E08
:104AD0009D1EA0913607B0913707512C412CF12C27
:104AE000E12C109731F580913407909135078815A6
:104AF000990509F05CC04616570608F058C0809129
:104B0000050190910601009741F48DB79EB7409141
:104B1000090150910A01841B950BE817F90708F069
:104B200055C0F0933507E0933407F9017183608332
:104B3000A0CF8D919C91119712966C90129713961D
:104B40007C901397A815B90559F56C0142E0C40E85
:104B5000D11CCA14DB0420F1AC014A195B09DA014B
:104B60001296159780F06282738251834083D90137
:104B70006D937C93E114F10471F0D7011396FC93CB
:104B8000EE93129776CF22968C0F9D1FF901918399
:104B90008083F301EFCFF0933707E093360769CFB7
:104BA0004816590608F42C017D01D3019ACFCB0198
:104BB0000E9407247C01009749F0AE01B8010E94D1
:104BC000E925C8010E94A324870153CF10E000E02B
:104BD00050CFFB01DC0102C001900D9241505040CA
:104BE000D8F70895FB01DC018D9101908019011027
:104BF000D9F3990B0895FB01DC0101900D9200207F
:104C0000E1F7089510E0C2E6D0E004C0FE010E9482
:104C1000F2232196C336D107C9F7F894FFCF0101DB
:104C2000010A0100003807800028303234373C4345
:104C300048506158025802560250024A0244023E4D
:104C400002380232022C02260220021A0214020E3C
:104C50000208020202FC01F601F001EA01E401DEB1
:104C600001D801D201CC01C601C001BA01B401AE24
:104C700001A801A2019C01960190018A0184017E94
:104C800001780172016C01660160015A0154014E04
:104C900001480142013C01360130012A0124011E74
:104CA00001180112010C0106010001FA00F400EEE6
:104CB00000E800E200DC00D600D000CA00C400B466
:104CC00000AE00A800A2009C00960090008A00841C
:104CD000007E00780072006C00660060005A00548C
:104CE000004E00480042003C00360030002A0024FC
:104CF000001E00180012000C000800000000003B1D
:104D0000019B00C8008801F900D700EB00636D64C7
:104D100000FFFFFF003D22003D0074696D65725386
:104D2000746174650063757272656E745072657338
:104D30007375726500736574506F696E7400424FCD
:104D4000494C45522054454D50204552524F522116
:104D500000706F7075704D53472E74302E747874D8
:104D6000007061676520706F7075704D5347006FFC
:104D70006666536574004F4646534554204552526B
:104D80004F522100687077720048505752204552A8
:104D9000524F5221006D446976004D5F44495620C0
:104DA0004552524F5221006244697600425F4449A5
:104DB00056204552524F52210055504441544520EF
:104DC0005355434345535346554C2100707053741B
:104DD00061727400505020537461727420455252B5
:104DE0004F522100707046696E0050502046696E27
:104DF000697368204552524F5221007069537461A3
:104E000074650070705374617465007069536563F4
:104E100000706942617200726567566F6C7400526F
:104E2000454720564F4C54204552524F5221007254
:104E30006567487A0052454720485A204552524FEC
:104E40005221007761726D757053746174650067EB
:104E5000657420005265616441616761696E5F310C
:104E6000005265616441616761696E5F320052653D
:104E7000616441616761696E5F33005265616441DD
:104E8000616761696E5F34005265616441616761A9
:104E9000696E5F35005265616441616761696E5F8B
:104EA00038005265616441616761696E5F39005223
:104EB00065616441616761696E5F313000526561AF
:104EC0006441616761696E5F3131006D6F64655384
:104ED000656C65637400534543555F434845434BD8
:104EE000204641494C454421204170706C79696EDF
:104EF000672064656661756C747321000D0A006D2E
:104F00006F726554656D702E6E312E76616C006D1A
:104F10006F726554656D702E6E322E76616C006D09
:104F20006F726554656D702E6E332E76616C006DF8
:104F30006F726554656D702E6E342E76616C006DE7
:104F40006F726554656D702E6E352E76616C0062E1
:104F50007265774175746F2E6E322E76616C0062C9
:104F60007265774175746F2E6E332E76616C0062B8
:104F70007265774175746F2E6274302E76616C00A5
:104F8000627265774175746F2E6274312E76616C32
:104F900000627265774175746F2E6E302E76616C8B
:104FA00000627265774175746F2E6E312E76616C7A
:104FB00000726567485A0068302E76616C006A306E
:104FC0002E76616C0046494E495348454421007491
:104FD00031342E7478740063757272656E74485043
:104FE00057520063757272656E7454656D70006619
:104FF0006C75736853746174650064657363616C88
:08500000655374617465000042
:107800000C94343C0C94513C0C94513C0C94513CE1
:107810000C94513C0C94513C0C94513C0C94513CB4
:107820000C94513C0C94513C0C94513C0C94513CA4
:107830000C94513C0C94513C0C94513C0C94513C94
:107840000C94513C0C94513C0C94513C0C94513C84
:107850000C94513C0C94513C0C94513C0C94513C74
:107860000C94513C0C94513C11241FBECFEFD8E036
:10787000DEBFCDBF11E0A0E0B1E0ECE9FFE702C060
:1078800005900D92A230B107D9F712E0A2E0B1E065
:1078900001C01D92AD30B107E1F70E942D3D0C945F
:1078A000CC3F0C94003C982F959595959595959582
:1078B000905D8F708A307CF0282F295A8091C0000B
:1078C00085FFFCCF9093C6008091C00085FFFCCF60
:1078D0002093C6000895282F205DF0CF982F809127
:1078E000C00085FFFCCF9093C6000895EF92FF92F1
:1078F0000F931F93EE24FF2487018091C00087FD22
:1079000017C00894E11CF11C011D111D81E4E8164B
:1079100082E4F8068FE0080780E0180770F3E09132
:107920000401F091050109958091C00087FFE9CF1E
:107930008091C6001F910F91FF90EF9008950E94D3
:10794000763C982F8091C00085FFFCCF9093C600B5
:1079500091362CF490330CF09053892F089597555D
:10796000892F08951F930E949F3C182F0E949F3CCF
:107970001295107F810F1F9108951F93182F882350
:1079800021F00E94763C1150E1F71F9108951F935A
:10799000182F0E94763C803249F0809103018F5F5E
:1079A000809303018530C1F01F9108958091C0003C
:1079B00085FFFCCF84E18093C6008091C00085FFE5
:1079C000FCCF1093C6008091C00085FFFCCF80E102
:1079D0008093C6001F910895E0910401F091050184
:1079E00009951F9108950E94763C803241F0809164
:1079F00003018F5F80930301853081F008958091AA
:107A0000C00085FFFCCF84E18093C6008091C00058
:107A100085FFFCCF80E18093C6000895E0910401CA
:107A2000F09105010995089540E951E08823A1F0FE
:107A30002D9A28EE33E0FA013197F1F721503040CA
:107A4000D1F72D9828EE33E0FA013197F1F7215064
:107A50003040D1F7815061F708953F924F925F9285
:107A60006F927F928F929F92AF92BF92CF92DF924E
:107A7000EF92FF920F931F93CF93DF93000080E16B
:107A80008093C4001092C50088E18093C10086E015
:107A90008093C2005098589A259A81E00E94143D24
:107AA00024E1F22E9EE1E92E85E9D82E0FE0C02ECA
:107AB00010E1B12EAA24A394B1E49B2EA6E58A2E50
:107AC000F2E57F2EE0E26E2E79E4572E63E5462E36
:107AD00050E5352E0E94763C8033B1F18133B9F107
:107AE000803409F46FC0813409F476C0823409F41B
:107AF00085C0853409F488C0803531F1823521F1A3
:107B0000813511F1853509F485C0863509F48DC0BC
:107B1000843609F496C0843709F403C1853709F423
:107B200072C1863709F466C0809103018F5F80932C
:107B30000301853079F6E0910401F0910501099582
:107B40000E94763C803351F60E94F33CC3CF0E94E2
:107B5000763C803249F78091C00085FFFCCFF092DF
:107B6000C6008091C00085FFFCCF9092C600809136
:107B7000C00085FFFCCF8092C6008091C00085FFC9
:107B8000FCCF7092C6008091C00085FFFCCF609250
:107B9000C6008091C00085FFFCCF5092C600809146
:107BA000C00085FFFCCF4092C6008091C00085FFD9
:107BB000FCCF3092C6008091C00085FFFCCFB09210
:107BC000C60088CF0E94763C863808F4BDCF0E945C
:107BD000763C0E94F33C7ECF0E94763C803809F4CC
:107BE0009CC0813809F40BC1823809F43CC1883942
:107BF00009F48FC080E00E94C73C6CCF84E10E94F2
:107C0000BD3C0E94F33C66CF85E00E94BD3C0E94D3
:107C1000F33C60CF0E94763C809306010E94763C44
:107C2000809307010E94F33C55CF0E94763C80333D
:107C300009F41DC183E00E94BD3C80E00E94C73C66
:107C400049CF0E94763C809309020E94763C809343
:107C5000080280910C028E7F80930C020E94763C79
:107C6000853409F415C18091080290910902892B8D
:107C700089F000E010E00E94763CF801E85FFE4FDA
:107C800080830F5F1F4F80910802909109020817AF
:107C9000190788F30E94763C803209F045CF809125
:107CA0000C0280FF01C16091060170910701660F0F
:107CB000771F7093070160930601A0910802B091AD
:107CC00009021097C9F0E8E0F1E09B01AD014E0F09
:107CD0005F1FF999FECF32BD21BD819180BDFA9A17
:107CE000F99A2F5F3F4FE417F50799F76A0F7B1F4B
:107CF00070930701609306018091C00085FFFCCF5F
:107D0000F092C6008091C00085FFFCCFB092C60003
:107D1000E1CE83E00E94C73CDDCE82E00E94C73CFA
:107D2000D9CE0E94763C809309020E94763C8093D3
:107D300008028091060190910701880F991F909386
:107D40000701809306010E94763C853409F4A6C0A1
:107D500080910C028E7F80930C020E94763C8032D0
:107D600009F0B8CE8091C00085FFFCCFF092C6002C
:107D7000609108027091090261157105B9F140E046
:107D800050E080910C02A82FA170B82FB27011C0E2
:107D9000BB2309F45CC0E0910601F0910701319624
:107DA000F0930701E09306014F5F5F4F46175707B7
:107DB000E8F4AA2369F3F999FECF209106013091E6
:107DC000070132BD21BDF89A90B58091C00085FFB2
:107DD000FCCF9093C6002F5F3F4F30930701209355
:107DE00006014F5F5F4F4617570718F38091C00099
:107DF00085FDE5CE8091C00085FFF8CFE0CE81E023
:107E00000E94C73C67CE0E94763C803209F08CCE3F
:107E10008091C00085FFFCCFF092C6008091C00029
:107E200085FFFCCFE092C6008091C00085FFFCCFAB
:107E3000D092C6008091C00085FFFCCFC092C600E2
:107E40008091C00085FFFCCFB092C60043CEE09188
:107E50000601F091070194918091C00085FFFCCF4D
:107E60009093C6009CCF80E10E94C73C33CE0E9415
:107E7000763C0E94763C182F0E94763C112309F430
:107E800083C0113009F484C08FE00E94C73C22CE29
:107E900080910C02816080930C02E5CE80910C02EF
:107EA000816080930C0259CF809107018823880F4D
:107EB000880B8A2180930B02809106019091070123
:107EC000880F991F90930701809306018091080203
:107ED00080FF09C080910802909109020196909359
:107EE000090280930802F894F999FECF1127E091D6
:107EF0000601F0910701C8E0D1E08091080290915D
:107F00000902103091F40091570001700130D9F34B
:107F100003E000935700E89500915700017001308D
:107F2000D9F301E100935700E89509901990009169
:107F3000570001700130D9F301E000935700E89534
:107F40001395103498F011270091570001700130FB
:107F5000D9F305E000935700E895009157000170B0
:107F60000130D9F301E100935700E895329602976A
:107F700009F0C7CF103011F00296E5CF112480919F
:107F8000C00085FFB9CEBCCE8EE10E94C73CA2CD19
:0E7F900085E90E94C73C9ECDF894FFCF80008B
:00000001FF
