:020000040800F2
:1000000000000220815F0008D15F0008D15F000876
:10001000D15F0008D15F0008D15F00080000000038
:10002000000000000000000000000000D15F000898
:10003000D15F000800000000D15F0008374D0008C4
:10004000D15F0008D15F0008D15F0008D15F0008D0
:10005000D15F0008D15F0008FD5C0008035D000867
:10006000095D00080F5D0008155D0008D15F0008FC
:10007000D15F0008D15F0008D15F0008D15F0008A0
:10008000D15F0008D15F0008D15F0008D15F000890
:10009000D15F0008D15F0008D15F00081B5D000838
:1000A0005D680008756700087168000899670008B6
:1000B000AD670008C1670008D5670008D15F000878
:1000C000D15F0008D15F0008D15F0008D15F000850
:1000D000D15F0008155900082D590008495900083A
:1000E000315D0008D15F0008D15F00088568000815
:1000F000256800089968000849680008D15F000871
:10010000D15F0008D15F0008E9670008D15F0008EF
:10011000655900087D590008FD670008116800084E
:10012000D15F0008D15F0008D15F0008D15F0008EF
:10013000D15F0008D15F0008D15F0008D15F0008DF
:10014000D15F0008D15F0008D15F0008D15F0008CF
:10015000D15F0008D15F0008D15F00089559000801
:10016000D15F0008D15F0008D15F0008D15F0008AF
:10017000D15F0008D15F0008D15F000800000000D7
:08018000D15F0008D15F000807
:1001900010F8012B11F8013B012A28BF9A42F7D031
:1001A000D01A7047034613F8012B002AFBD1181A06
:1001B000013870470000000000000000000000004F
:1001C00001F0FF01102A2BDB10F0070F08D010F808
:1001D000013B013A8B422DD010F0070F42B3F6D10C
:1001E000F0B441EA012141EA014122F007047FF025
:1001F00000070023F0E80256083C85EA010586EA7C
:10020000010685FA47F5A3FA87F586FA47F6A5FAB7
:1002100087F68EB9EED1F0BC01F0FF0102F00702C3
:1002200032B110F8013B013A83EA010313B1F8D16E
:100230000020704701387047002D06BF354603384F
:10024000073815F0010F07D1013015F4807F02BF88
:10025000013015F4C03F0130F0BC0138704700BFD9
:1002600081F0004102E000BF83F0004330B54FEA67
:1002700041044FEA430594EA050F08BF90EA020FD4
:100280001FBF54EA000C55EA020C7FEA645C7FEA67
:10029000655C00F0E2804FEA5454D4EB5555B8BF8A
:1002A0006D420CDD2C4480EA020281EA030382EAFB
:1002B000000083EA010180EA020281EA0303362D8D
:1002C00088BF30BD11F0004F4FEA01314FF4801C60
:1002D0004CEA113102D0404261EB410113F0004F72
:1002E0004FEA03334CEA133302D0524263EB430329
:1002F00094EA050F00F0A780A4F10104D5F1200EC7
:100300000DDB02FA0EFC22FA05F2801841F1000121
:1003100003FA0EF2801843FA05F359410EE0A5F1F5
:1003200020050EF1200E012A03FA0EFC28BF4CF026
:10033000020C43FA05F3C01851EBE37101F00045DC
:1003400007D54FF0000EDCF1000C7EEB00006EEBE9
:100350000101B1F5801F1BD3B1F5001F0CD3490873
:100360005FEA30004FEA3C0C04F101044FEA4452CA
:1003700012F5800F80F09A80BCF1004F08BF5FEA51
:10038000500C50F1000041EB045141EA050130BD31
:100390005FEA4C0C404141EB0101013C28BFB1F543
:1003A000801FE9D291F0000F04BF01460020B1FA8E
:1003B00081F308BF2033A3F10B03B3F120020CDA61
:1003C0000C3208DD02F1140CC2F10C0201FA0CF03F
:1003D00021FA02F10CE002F11402D8BFC2F1200CA4
:1003E00001FA02F120FA0CFCDCBF41EA0C0190405A
:1003F000E41AA2BF01EB0451294330BD6FEA0404A3
:100400001F3C1CDA0C340EDC04F11404C4F120028D
:1004100020FA04F001FA02F340EA030021FA04F39F
:1004200045EA030130BDC4F10C04C4F1200220FAF6
:1004300002F001FA04F340EA0300294630BD21FA34
:1004400004F0294630BD94F0000F83F4801306BFFA
:1004500081F480110134013D4EE77FEA645C18BFEE
:100460007FEA655C29D094EA050F08BF90EA020F85
:1004700005D054EA000C04BF1946104630BD91EA7D
:10048000030F1EBF0021002030BD5FEA545C05D180
:100490004000494128BF41F0004130BD14F58004BF
:1004A0003CBF01F5801130BD01F0004545F0FE4133
:1004B00041F470014FF0000030BD7FEA645C1ABF68
:1004C000194610467FEA655C1CBF0B46024650EA9F
:1004D000013406BF52EA033591EA030F41F40021CB
:1004E00030BD00BF90F0000F04BF0021704730B551
:1004F0004FF4806404F132044FF000054FF0000126
:1005000050E700BF90F0000F04BF0021704730B5E6
:100510004FF4806404F1320410F0004548BF4042BB
:100520004FF000013EE700BF42004FEAE2014FEA10
:1005300031014FEA02701FBF12F07F4393F07F4FEB
:1005400081F06051704732F07F4208BF704793F0EE
:100550007F4F04BF41F40021704730B54FF4607401
:1005600001F0004521F000411CE700BF50EA010204
:1005700008BF704730B54FF000050AE050EA0102AD
:1005800008BF704730B511F0004502D5404261EB1D
:1005900041014FF4806404F132045FEA915C3FF45E
:1005A000D8AE4FF003025FEADC0C18BF03325FEAFB
:1005B000DC0C18BF033202EBDC02C2F1200300FAAC
:1005C00003FC20FA02F001FA03FE40EA0E0021FAD1
:1005D00002F11444BDE600BF70B54FF0FF0C4CF4BF
:1005E000E06C1CEA11541DBF1CEA135594EA0C0F71
:1005F00095EA0C0F00F0DEF82C4481EA030621EAAC
:100600004C5123EA4C5350EA013518BF52EA0335E6
:1006100041F4801143F4801338D0A0FB02CE4FF098
:100620000005E1FB02E506F00042E0FB03E54FF0C8
:100630000006E1FB03569CF0000F18BF4EF0010EC0
:10064000A4F1FF04B6F5007F64F5407404D25FEABC
:100650004E0E6D4146EB060642EAC62141EA55516F
:100660004FEAC52040EA5E504FEACE2EB4F1FD0CB1
:1006700088BFBCF5E06F1ED8BEF1004F08BF5FEA2F
:10068000500E50F1000041EB045170BD06F00046E1
:1006900046EA010140EA020081EA0301B4EB5C048E
:1006A000C2BFD4EB0C0541EA045170BD41F4801186
:1006B0004FF0000E013C00F3AB8014F1360FDEBFAB
:1006C000002001F0004170BDC4F10004203C35DA87
:1006D0000C341BDC04F11404C4F1200500FA05F30A
:1006E00020FA04F001FA05F240EA020001F00042AB
:1006F00021F0004110EBD37021FA04F642EB060121
:100700005EEA430E08BF20EAD37070BDC4F10C044A
:10071000C4F1200500FA04F320FA05F001FA04F20E
:1007200040EA020001F0004110EBD37041F10001FA
:100730005EEA430E08BF20EAD37070BDC4F1200505
:1007400000FA05F24EEA020E20FA04F301FA05F26D
:1007500043EA020321FA04F001F0004121FA04F215
:1007600020EA020000EBD3705EEA430E08BF20EAE5
:10077000D37070BD94F0000F0FD101F0004640001F
:1007800041EB010111F4801F08BF013CF7D041EAA1
:10079000060195F0000F18BF704703F000465200A5
:1007A00043EB030313F4801F08BF013DF7D043EA76
:1007B0000603704794EA0C0F0CEA135518BF95EA2C
:1007C0000C0F0CD050EA410618BF52EA4306D1D1B3
:1007D00081EA030101F000414FF0000070BD50EAD2
:1007E000410606BF1046194652EA430619D094EA5C
:1007F0000C0F02D150EA013613D195EA0C0F05D146
:1008000052EA03361CBF104619460AD181EA030199
:1008100001F0004141F0FE4141F470014FF0000051
:1008200070BD41F0FE4141F4780170BD70B54FF0EC
:10083000FF0C4CF4E06C1CEA11541DBF1CEA13556C
:1008400094EA0C0F95EA0C0F00F0A7F8A4EB05044E
:1008500081EA030E52EA03354FEA013100F0888045
:100860004FEA03334FF0805545EA131343EA12630E
:100870004FEA022245EA111545EA10654FEA0026C3
:100880000EF000419D4208BF964244F1FD0404F57C
:10089000407402D25B084FEA3202B61A65EB0305D8
:1008A0005B084FEA32024FF480104FF4002CB6EB95
:1008B000020E75EB030E22BFB61A754640EA0C0015
:1008C0005B084FEA3202B6EB020E75EB030E22BF55
:1008D000B61A754640EA5C005B084FEA3202B6EB96
:1008E000020E75EB030E22BFB61A754640EA9C0055
:1008F0005B084FEA3202B6EB020E75EB030E22BF25
:10090000B61A754640EADC0055EA060E18D04FEAE2
:10091000051545EA16754FEA06164FEAC30343EA82
:1009200052734FEAC2025FEA1C1CC0D111F4801F4F
:100930000BD141EA00014FF000004FF0004CB6E748
:1009400011F4801F04BF01430020B4F1FD0C88BFE7
:10095000BCF5E06F3FF6AFAEB5EB030C04BFB6EBF2
:10096000020C5FEA500C50F1000041EB045170BDE5
:100970000EF0004E4EEA113114EB5C04C2BFD4EB12
:100980000C0541EA045170BD41F480114FF0000E96
:10099000013C90E645EA060E8DE60CEA135594EA12
:1009A0000C0F08BF95EA0C0F3FF43BAF94EA0C0F15
:1009B0000AD150EA01347FF434AF95EA0C0F7FF48A
:1009C00025AF104619462CE795EA0C0F06D152EADE
:1009D00003353FF4FDAE1046194622E750EA4106C2
:1009E00018BF52EA43067FF4C5AE50EA41047FF4D3
:1009F0000DAF52EA43057FF4EBAE12E74FF0FF3C38
:100A000006E000BF4FF0010C02E000BF4FF0010C08
:100A10004DF804CD4FEA410C7FEA6C5C4FEA430C81
:100A200018BF7FEA6C5C1BD001B050EA410C0CBFD0
:100A300052EA430C91EA030F02BF90EA020F002032
:100A4000704710F1000F91EA030F58BF994208BF99
:100A500090422CBFD8176FEAE37040F00100704756
:100A60004FEA410C7FEA6C5C02D150EA013C07D1AD
:100A70004FEA430C7FEA6C5CD6D152EA033CD3D0F8
:100A80005DF8040B704700BF8446104662468C46F2
:100A90001946634600E000BF01B5FFF7B7FF002825
:100AA00048BF10F1000F01BD4DF808EDFFF7F4FF4E
:100AB0000CBF012000205DF808FB00BF4DF808EDD9
:100AC000FFF7EAFF34BF012000205DF808FB00BFFC
:100AD0004DF808EDFFF7E0FF94BF012000205DF81E
:100AE00008FB00BF4DF808EDFFF7CEFF94BF0120D3
:100AF00000205DF808FB00BF4DF808EDFFF7C4FFCC
:100B000034BF012000205DF808FB00BF4FEA410C14
:100B10007FEA6C5C02D150EA013C0AD14FEA430CF7
:100B20007FEA6C5C02D152EA033C02D14FF0000034
:100B300070474FF0010070474FEA410212F5001272
:100B400015D211D56FF47873B3EB625212D94FEA14
:100B5000C12343F0004343EA505311F0004F23FAFE
:100B600002F018BF404270474FF00000704750EA53
:100B7000013005D111F0004008BF6FF00040704710
:100B80004FF00000704700BF4A0011D212F500126A
:100B900011D20DD56FF47873B3EB62520ED44FEAD5
:100BA000C12343F0004343EA505323FA02F0704755
:100BB0004FF00000704750EA013002D14FF0FF3093
:100BC00070474FF0000070474FEA4102B2F1E04336
:100BD00024BFB3F5001CDCF1FE5C0DD901F0004C24
:100BE0004FEAC0024CEA5070B2F1004F40EB830074
:100BF00008BF20F00100704711F0804F21D113F1A0
:100C00003872BCBF01F00040704741F480114FEAD8
:100C10005252C2F11802C2F1200C10FA0CF320FA61
:100C200002F018BF40F001004FEAC1234FEAD3237E
:100C300003FA0CFC40EA0C0023FA02F34FEA4303E8
:100C4000CCE77FEA625307D150EA01331EBF4FF071
:100C5000FE4040F44000704701F0004040F0FE408C
:100C600040F40000704700BF53B94AB9002908BFDB
:100C700000281CBF4FF0FF314FF0FF3000F0E2B80A
:100C8000ADF1080C6DE904CE07F0D8FEDDF804E004
:100C9000DDE9022304B0704700F1340191E8380027
:100CA0009C46A6464CF8045D90E8FF0FE54600BD63
:100CB00090EC210B704700BF80EC210B704700BF08
:100CC00090EC200B704700BF80EC200B704700BFFA
:100CD000D0EC200B704700BFC0EC200B704700BF6A
:100CE000F0EC0201F0EC0211F0EC0221F0EC023128
:100CF000F0EC0241F0EC0251F0EC0261F0EC027118
:100D0000F0EC0281F0EC0291F0EC02A1F0EC02B107
:100D1000F0EC02C1F0EC02D1F0EC02E1F0EC02F1F7
:100D2000704700BFE0EC0201E0EC0211E0EC0221B0
:100D3000E0EC0231E0EC0241E0EC0251E0EC026157
:100D4000E0EC0271E0EC0281E0EC0291E0EC02A147
:100D5000E0EC02B1E0EC02C1E0EC02D1E0EC02E137
:100D6000E0EC02F1704700BFB0FC0181B0FC0191E2
:100D7000B0FC01A1B0FC01B1704700BFA0FC018133
:100D8000A0FC0191A0FC01A1A0FC01B1704700BF33
:100D9000EC4600B52DE900502DE9FF1F4FF0000390
:100DA0002DE90C0001A908F003F9DDF840E012B0CC
:100DB000704700BFEC4600B52DE900502DE9FF1F3C
:100DC0004FF000032DE90C0001A908F02DF9DDF822
:100DD00040E012B0704700BFEC4600B52DE900506E
:100DE0002DE9FF1F4FF000032DE90C0001A908F0C9
:100DF0003DF9DDF840E012B0704700BFEC4600B5A9
:100E00002DE900502DE9FF1F4FF000032DE90C00E4
:100E100001AB08F001F9DDF840E012B0704700BF07
:100E2000EC4600B52DE900502DE9FF1F4FF00003FF
:100E30002DE90C0001AA08F06DF9DDF840E012B0D0
:100E4000704700BF704700BF10B5054C237833B919
:100E5000044B13B10448AFF300800123237010BD8D
:100E6000B000002000000000C899000808B5034B3E
:100E70001BB103490348AFF3008008BD0000000028
:100E8000B4000020C89900080121022005F03AB9F9
:100E900008B5C52005F0B0F8FFF724FB07A3D3E998
:100EA0000023FFF7C3FC044B0022FFF7DDF9FFF737
:100EB0008BFE00EE100A08BD0000F83F295C8FC2CF
:100EC000F510714030B58C4C8C4DD4E900239A421A
:100ED00085B003D12B78002B00F00B81884901A845
:100EE00005F069FE01A9844801F050FF854B0038E8
:100EF00018BF0120187001A805F018FE824901A84A
:100F000005F059FE01A97C4801F040FF7F4B0038F5
:100F100018BF0120187001A805F008FE7C4901A83F
:100F200005F049FE01A9744801F030FF794B1870B3
:100F300001A805F0FBFD784901A805F03CFE01A9D8
:100F40006D4801F023FF754B187001A805F0EEFD08
:100F5000734901A805F02FFE01A9674801F016FFAB
:100F6000704B187001A805F0E1FD6F4901A805F06C
:100F700022FE01A9604801F009FF6C4B187001A81E
:100F800005F0D4FD6A4901A805F015FE01A95A48EB
:100F900001F0FCFE674B187001A805F0C7FD66491B
:100FA00001A805F008FE01A9534801F0EFFE634BCC
:100FB000187001A805F0BAFD614901A805F0FBFD14
:100FC00001A94D4801F0E2FE5E4B187001A805F042
:100FD000ADFD5D4901A805F0EEFD01A9464801F00F
:100FE000D5FE5A4B003818BF0120187001A805F033
:100FF0009DFD574901A805F0DEFD01A93E4801F01D
:10100000C5FE544B003818BF0120187001A805F028
:101010008DFD514901A805F0CEFD01A9364801F02A
:10102000B5FE4E4B188001A805F080FD4C4901A883
:1010300005F0C1FD01A9304801F0A8FE494B188018
:1010400001A805F073FD484901A805F0B4FD01A908
:10105000294801F09BFE454B80B2188001A805F09D
:1010600065FD434901A805F0A6FD01A9224801F04C
:101070008DFE404B187001A805F058FD3E4901A8AF
:1010800005F099FD01A91C4801F080FE3B4B18704A
:1010900001A805F04BFD3A4901A805F08CFD01A916
:1010A000154801F073FE374B187001A805F03EFD9E
:1010B000354901A805F07FFD01A90F4801F066FE42
:1010C000324B003818BF0120187001A805F02EFD22
:1010D0002F4901A805F06FFD01A9074801F056FE50
:1010E0002C4B187001A805F021FD236863600023D4
:1010F0002B7005B030BD00BF48010020F500002076
:10110000E0990008AE010020E8990008AF01002036
:10111000F0990008AC010020F6990008AA0100200F
:10112000FC990008AB010020039A0008A9010020E7
:101130000B9A0008A6010020119A0008A7010020C0
:10114000189A0008A8010020219A00083E010020FA
:101150002C9A00083D010020399A0008D401002093
:10116000429A0008A4010020499A0008CE000020FD
:101170004E9A0008F4000020539A0008CC0000208A
:10118000589A0008D00100205E9A0008E40100206F
:101190006A9A0008D201002030B5A44B1B68033BBB
:1011A00087B00024042B00F2CC80DFE813F00500A8
:1011B0008E00CA00CC0018019D4903A805F0FBFC75
:1011C00003A99A4801F0E2FD0446A4B203A805F081
:1011D000ADFC003C974903A818BF012405F0EBFCC7
:1011E00003A9924801F0D2FD0546ADB203A805F06F
:1011F0009DFC05B10134904903A805F0DCFC03A96E
:101200008A4801F0C3FD03A805F090FC8B4903A8B0
:1012100005F0D1FC03A9854801F0B8FD03A805F04D
:1012200085FC874903A805F0C6FC03A97F4801F0A7
:10123000ADFD0546ADB203A805F078FC012D81494E
:1012400003A88CBF0234033405F0B5FC03A977482A
:1012500001F09CFD0546ADB203A8E4B205F066FCC2
:10126000012D98BF0134784903A898BFE4B205F076
:10127000A2FC03A96D4801F089FD03A805F056FC06
:10128000724903A805F097FC03A9684801F07EFDA8
:101290000546ADB203A805F049FC092D6C4903A829
:1012A0008CBF0134023405F086FC03A95F4801F0CD
:1012B0006DFD03A805F03AFCE4B266496846082CC7
:1012C0001BD005F078FC64491AE0644903A805F0D6
:1012D00072FC03A9554801F059FD03A805F026FC4E
:1012E0005F4903A805F067FC03A9504801F04EFDD3
:1012F00003A805F01BFC5749684605F05CFC5949FA
:1013000003A805F058FC03AA6946484801F0AEFC62
:1013100003A805F00BFC684605F008FC5249684636
:1013200005F049FC514903A805F045FC3F4803AAD4
:10133000694601F09BFC03A805F0F8FB684605F040
:10134000F5FB07B030BD4A4903A805F034FC03A9FA
:10135000364801F01BFD0546ADB203A805F0E6FBDB
:10136000002D444903A818BF012405F024FC03A95B
:101370002E4801F00BFD03A805F0D8FB3E4903A859
:1013800005F019FC03A9294801F000FD03A805F0A8
:10139000CDFB3A4903A805F00EFC03A9234801F050
:1013A000F5FC0546ADB203A805F0C0FBADB90234AB
:1013B000334903A805F0FFFB03A91C4801F0E6FC34
:1013C0000546ADB203A805F0B1FBE4B20DB101349E
:1013D000E4B220496846052C72E70334E8E729495E
:1013E00003A805F0E8FB03A9104801F0CFFC85B283
:1013F00003A805F09BFB322D01D03C2D00D1012428
:10140000214903A805F0D7FB03A9084801F0BEFC59
:101410000546ADB203A805F089FB012D9CBF013440
:10142000E4B20C496846022C4AE700BF480100209C
:10143000039A00080B9A0008119A0008189A0008ED
:10144000E0990008E8990008F0990008F69900086A
:10145000FC990008759A0008989A0008B19A00084B
:10146000C29A0008859A00089F9A0008AD9A000861
:10147000399A0008429A0008499A00084E9A0008D2
:10148000539A0008589A00085E9A000808B50B485D
:101490000022642101F046FF78B10948002264214E
:1014A00001F040FF48B105480A2101F083FFBDE883
:1014B000084003480A2101F07DBF08BDD400002088
:1014C000E400002008B5152004F056FEB0FA80F0C4
:1014D000400908BD38B5184D04462860FFF7F2FFF3
:1014E00007EE904A154BB8EEE77A6FF00B02B8B1F1
:1014F000D3ED007AFDEEE77A17EE904A54437F343D
:101500002C60D3ED007AB4EEE77AF1EE10FA01D553
:1015100000232B6029680A48BDE8384001F090BFDD
:1015200054437F342C60D3ED007AB4EEE77AF1EEC9
:1015300010FA48BF2860EDE7E001002044010020D8
:10154000B4010020F0B52DED028BA64C89B004F05B
:101550004DFE2368C01AB0F5AF7F31D9A24905A866
:1015600005F029FBFFF794FCF2EE047A20EE270A3F
:1015700005A9FDEEC07A9D4817EE902A01F056FBB2
:1015800005A805F0D3FA9A4905A805F014FB994B74
:10159000964893ED007A984B1B8807EE903AF8EE48
:1015A000E77A05A977EE677AFDEEE77A17EE902ADB
:1015B00001F03CFB05A805F0B9FA04F017FE206025
:1015C000FFF780FF002856D08C4B1B78002B52D0A1
:1015D000864B1B685A1E012A6BD8894E894D337879
:1015E0000BB12B78B3B988480022962101F09AFEFE
:1015F00068B186480022962101F094FE38B18248F5
:101600000A2101F0D7FE81480A2101F0D3FE01230F
:1016100033702B707E4F7F4C04F0E8FD3B68C01A9E
:10162000C828F6EE008A64D97748012101F0AEFEA1
:1016300076480121B0EE408A01F0A8FE38EE000A9B
:10164000FEEE007A20EE280AB4EEE70AF1EE10FA78
:1016500084ED000A0BD9704AD2ED007A70EE676A09
:10166000B3EE047AF4EEC76AF1EE10FA27DB00233A
:1016700033702B70B3E7FFF725FF002800F084805C
:10168000FFF720FF38B95D4B1B7823B1574B1B6820
:101690000B2B00F0CF805B4A5E4900231370584A41
:1016A000137000220A605C490A605C490A605C4A67
:1016B00095E0082B91D009B0BDEC028BF0BDB7EEE0
:1016C000087AB4EEC70AF1EE10FA5ADDB4EEE70A72
:1016D000F1EE10FA55D552490B78072B95BF01331F
:1016E0000023C4ED007A82ED000A0B7004F07EFD49
:1016F00038604C49494D05A805F05DFA94ED000AA3
:10170000012102A805F08BFA02AA05A9374801F0C9
:10171000ADFA02A805F00AFA05A805F007FAD4ED1B
:10172000007A95ED007A77EEC77AF4EEE87AF1EE7A
:1017300010FAC0DB3C4E04F059FD3368C01AB0F516
:101740007A7FB8D3D5ED007A94ED008A374938EE28
:10175000678AF2EE047A28EE278A05A805F02BFAAC
:10176000FDEEC87A05A917EE902A204801F05EFA2E
:1017700005A805F0DBF923682B6004F037FD306025
:1017800099E782ED000AB1E71C4B1B78002B3FF470
:1017900077AF164B1B685A1E012A02D9082B7FF41B
:1017A0006FAF204905A805F006FA1A4B9FED200AF5
:1017B000D3ED007A012130EE270A02A805F02FFAB6
:1017C00002AA05A9094801F051FA02A805F0AEF9EC
:1017D00005A805F0ABF90B4A00231370084A1370F3
:1017E00069E700BF0C010020CF9A000848010020E3
:1017F000DC9A000840010020A4010020D101002053
:101800001901002010010020D4000020E400002075
:101810001401002038010020B00100200801002040
:1018200018010020E89A000804010020F39A00083B
:1018300000000000354D04F0D9FC2B68C01AC82800
:101840007FF639AF324C2278AAB93248019264212E
:1018500001F068FD019A60B12F48642101F062FD3A
:1018600038B12C480A2101F0A5FD2B480A2101F0CE
:10187000A1FD012323702748284C012101F086FD9A
:1018800025480121B0EE408A01F080FD38EE000AC3
:10189000B6EE008A20EE080A214984ED000A05A868
:1018A00005F089F994ED000A012102A805F0B7F9C5
:1018B00002AA05A91B4801F0D9F902A805F036F9DA
:1018C00005A805F033F9D4ED007AB7EE087AF4EE06
:1018D000C77AF1EE10FA12DD134991ED007AF4EEB9
:1018E000C77AF1EE10FA0AD5104A1378032B95BF88
:1018F0000133002384ED007AC1ED007A13700C4BA4
:1019000000221A7004F072FC2860D4E61401002052
:1019100019010020D4000020E4000020380100203C
:10192000E89A000848010020B001002018010020BA
:101930001001002008B5142004F01EFCB0FA80F05D
:10194000400908BD7FB50849019003A805F033F9A7
:10195000019A064803A901F069F903A805F0E6F821
:1019600007B05DF804FB00BFFC9A000848010020A6
:10197000012801D1FFF788BA0021022004F0C2BB80
:1019800010B5154C04F032FC236898421ED9134858
:1019900001F0C6FB124B83ED000AD3ED007AF5EEA1
:1019A000C07AF1EE10FA09D91A68DFED0E7A93EDDC
:1019B000007AB4EEE77AF1EE10FA02DD0020FFF7CC
:1019C000D7FF04F013FC00F5AF702060FFF760FA5A
:1019D000054B83ED000A10BDD8010020DC0100207A
:1019E00040010020000025434401002000000000C9
:1019F00070B52DED028BFFF74BFAB0EE408AFFF782
:101A000061FD88BBF2EE027AB4EEE78AF1EE10FADD
:101A100050D8314E3068FEF787FD304B04461888A9
:101A20000D46FEF76FFD2E4B0022FEF71DFC024611
:101A30000B4620462946FFF75FF870B196ED007A15
:101A4000DFED287AB4EEE77AF1EE10FA05D8BDECB6
:101A5000028BBDE87040FFF717BABDEC028B002087
:101A6000BDE87040FFF784BFFFF72CFD0028F4D0DD
:101A7000F2EE027AB4EEE78AF1EE10FA1AD8164EB8
:101A80003068FEF751FD154B044618880D46FEF7E9
:101A900039FD134B0022FEF7E7FB02460B462046BA
:101AA0002946FFF729F80028D7D096ED007ADFED18
:101AB0000E7AC7E718EE100AFEF736FD04A3D3E945
:101AC0000023FFF70FF80028C7D1BDEC028B70BDD3
:101AD000333333333333224040010020D40100201C
:101AE0000000244000001B430000D2420000000020
:101AF00032EE612A31EE601A08B5C2EE017A2DEDA0
:101B0000028BE0EEE71AE7EE801AB0EE618AFEF78C
:101B1000F9FC9FED0B0B41EC110B05F011FF51ECA3
:101B2000100BFFF709F807EE900AF8EEE78A28EEA7
:101B3000880A05F0DDFE80EE280ABDEC028B08BDA8
:101B400000000000000024402DE9F04FDFF8E8829B
:101B5000DFF8E892B8F80040DFF8E4A2AA4E9AED68
:101B6000000A3288DFF8C0B22DED028BA4B299F8DA
:101B70000030B4FBF3F4B8F80030E4B207EE904A5A
:101B80009BB201EE903AA2F10A0300EE903AB8EE51
:101B9000672A07EE902AF8EE611AB8EE671AF8EE97
:101BA000E00A89B00020FFF7A3FFBCEEC00A10EEE8
:101BB000103A9BB2ABF80030BBF8002092B29442CE
:101BC000A3B20CD8BBF80020B8F8003092B29BB298
:101BD0009A428CBFB8F80030BBF800309BB237880F
:101BE000ABF800309AED000A38468DED030AFEF797
:101BF00089FC83A3D3E9002304460D46FEF7ECFCE1
:101C00000B460246CDE90023FEF7DEFFDDE90023A7
:101C100008EE100A29462046FEF728FBFEF7D4FFFF
:101C200007EE907A01EE100AF0EE481A9FED772A3F
:101C30009DED030AF8EE670A0020FFF759FFB5EEA5
:101C4000C00AF1EE10FAB0EE408A00F193803088BD
:101C5000FEF758FC6AA3D3E90023FEF7BDFC044657
:101C60000D4618EE100AFEF75FFC22462B46FEF7E3
:101C700043FF28B120462946FEF7A6FF08EE100ACA
:101C8000FFF720FC002800F02981614B1A78092A0F
:101C90000AD840F22123D340DB0705D50920FFF7FE
:101CA00019FC0120FFF74EFE5A4905A804F083FFF6
:101CB000002205A9584800F0B9FF05A804F036FF36
:101CC000B6F800B0DAF800705846FEF71BFC044680
:101CD00038460D46FEF728FC504B06460F460022BC
:101CE00020462946FEF7C2FA02460B4630463946E0
:101CF000FEF7E4FE002840D0494B1B78002B3CD176
:101D000004F074FA474C484B1D88FEF7EBFBD4E90E
:101D10000023FEF7A9FA454B06461878ADB2684392
:101D20000F46FEF7EFFB02460B4630463946FEF7FC
:101D3000E3FE00284BD104F059FAFEF7D3FBD4E9B7
:101D40000023FEF791FAB8F80050064699F8000013
:101D5000ADB268430F46FEF7D5FB02460B46304650
:101D60003946FEF7C9FE002840D109B0BDEC028B10
:101D7000BDE8F08F9FED258A82E707EE10BAB8EE36
:101D8000C70ADAED007A30EE088AB4EEE78AF1EE9F
:101D900010FA57DCDAF80000FEF7C6FB244B0646C3
:101DA0000F46002220462946FEF75EFA02460B4601
:101DB00030463946FEF78CFE002840F0888000202F
:101DC00009B0BDEC028BBDE8F04FFFF7D1BD194D56
:101DD00028780028AFD1FFF7CBFD01232B7004F04A
:101DE00005FAFEF77FFBC4E90001BEE7114D2B7831
:101DF000012BBAD1FFF748F80023EFE7AFF30080DB
:101E00009A9999999999B93FD4010020000000004E
:101E1000D20100205E9A0008480100200000D03F57
:101E2000AD01002020010020D0000020CC000020C7
:101E30000000084028010020CE000020F40000200F
:101E400040010020924B1B78002BA3D0914C04F052
:101E5000CDF9FEF747FBD4E90023FEF705FAB8F801
:101E60000050064699F80000ADB268430F46FEF7F1
:101E700049FB02460B4630463946FEF73DFE20B18F
:101E8000854D2B78002B00F0008104F0AFF9FEF7B0
:101E900029FBD4E90023FEF7E7F9B8F80050ADB20A
:101EA00006460F462846FEF72DFB02460B463046F7
:101EB0003946FEF721FE00283FF457AF764D2B78C8
:101EC000012B7FF452AF0020FFF752FD94E709B0D9
:101ED000BDEC028BBDE8F04FFEF7D6BF3388DAF8D1
:101EE000007008EE103AB8EE488A18EE100AFEF7B5
:101EF0001BFB6A4B002204460D46FEF7B5F98046EF
:101F000089463846FEF710FB42464B46FEF7D6FDA3
:101F100000900028DBD1DAED007A614B00222046E8
:101F20002946F0EE678AFEF79FF9064618EE900AFA
:101F30000F46FEF7F9FA02460B4640464946FEF7C1
:101F4000C7FD40B1DAF80000FEF7EEFA32463B4634
:101F5000FEF7B4FD38BBDAF80000FEF7E5FA3246CA
:101F60003B46FEF7BFFD002849D1DAF80000FEF736
:101F7000DBFA4C4B06460F46002220462946FEF768
:101F800073F902460B4630463946FEF7ABFD002892
:101F90003FF415AFDAED007AB4EEE78AF1EE10FA0D
:101FA0007FF70DAF3FE03B4FFEF76EFF04F01EF9E9
:101FB000FEF798FAD7E90023FEF756F9BBF8006060
:101FC000394B0446B6B21878B6FBF0F00D46FEF772
:101FD00099FA02460B4620462946FEF78DFD002859
:101FE0003FF4C3AE0098FFF7C3FC2B4B009A1A7066
:101FF00004F0FCF8FEF776FAC7E90001B5E6DAF876
:102000000000FEF791FA294B06460F4600222046B3
:102010002946FEF729F902460B4630463946FEF7B7
:1020200057FD0028A1D01B4CDFF87C8004F0DEF8BF
:10203000FEF758FAD4E90023FEF716F9BBF8005072
:102040000646ADB298F80000B5FBF0F00F46FEF77B
:1020500059FA02460B4630463946FEF74DFD10B19F
:102060000D4D2B788BB104F0C1F8FEF73BFAD4E9A3
:102070000023FEF7F9F8BBF800500646ADB298F819
:102080000000B5FBF0F00F460DE7FEF7FDFEA4E6FD
:10209000AD01002020010020280100200000244084
:1020A000000008400000E03FCC0000200000F03FAE
:1020B0002DE9F041744B1B68052B86B040F0E180A0
:1020C000724C2368DA0705D404F090F8704B18605E
:1020D000012323606F4C2368DB070ED46E4903A8ED
:1020E00004F069FD684803A900F050FE6B4B1870BE
:1020F000012303A8236004F019FDFFF7E3F900288A
:1021000031D0674E96F80080B8F1000F2BD1634CA8
:10211000644F5F4D0120FFF715FC22783B789A420F
:1021200034D34046FFF7D6F904F060F82B68C01AA4
:102130005D4B98424DD92378574903EB4303632BFA
:1021400003A868DC04F037FD22784F4802EB420216
:1021500003A900F06BFD03A804F0E8FC237803EB6F
:1021600043033B7032E0FFF7ADF9002860D1FFF781
:10217000A9F970BB494B18704A4B0A221A70484B98
:10218000187004F033F8424B186022E0474F3B7858
:1021900023B30220FFF79EF904F028F82B68C01A39
:1021A000B0F5FA7F15D923783B49632B84BF01230F
:1021B000337003A800233B7004F0FDFC324803A9F0
:1021C00000F0E4FD207003A804F0B0FC04F00EF869
:1021D000286006B0BDE8F041FFF7B6BC0120FFF76C
:1021E00079F904F003F82B68C01A41F28833984259
:1021F000EFD901233B7023780133DBB2632B2370CB
:10220000E4D8254903A804F0D6FC22781E4803A987
:1022100000F00CFDD7E704F0CEFC1B48642203A9B4
:1022200000F004FD03A804F081FC0123337095E75E
:102230001B4B1B78002B9AD00020154CFFF74AF956
:1022400003F0D4FF2368C01AB0F57A7FC1D900200B
:10225000FFF778FB1649684604F0ADFC154903A862
:1022600004F0A9FC03AA6946074800F0FFFC03A894
:1022700004F05CFC684604F059FC03F0B7FF2060F2
:10228000A7E706B0BDE8F08148010020000100206A
:1022900034010020FC000020079B000832010020D0
:1022A0003101002003000020C0D401000400002000
:1022B0000E9B0008169B00082DE9F041FFF702F97C
:1022C0006F4D704E0446002800F0BC802B782BB177
:1022D00003F08CFF6C4B186000232B7033782BB30A
:1022E000694C03F083FF2368C01A684B1B784FF4D6
:1022F0007A725343984207D900233370644B01220A
:102300001A7003F073FF20600120FFF71BFB614B85
:102310001878614B07EE900AF8EE677AC3ED007A01
:10232000FFF7D8F8BDE8F041FFF70EBC584B1B781B
:10233000002BF7D0574E594D32782B78DFF8488173
:10234000554C574F9A423ED203F050FF2B78D8F8A5
:10235000002002EE103A337801EE903A3B784FF4C9
:102360007A7101FB032301EE103A07EE902A00EE8A
:10237000100AF8EE670AB8EE422AF8EE611AB8EED3
:10238000411AB8EE400A0120FFF7B2FB337884ED22
:10239000000A07EE903AF8EE677AB4EEE70AF1EE3B
:1023A00010FA3FD42B7807EE903AF8EE677AB4EE45
:1023B000E70AF1EE10FA35DCD4ED007AFDEEE77AAB
:1023C00017EE900AACE7BFD903F010FF2B78D8F8CE
:1023D000002002EE103A337801EE903A3B784FF449
:1023E0007A7101FB032301EE103A07EE902A00EE0A
:1023F000100AF8EE670AB8EE422AF8EE611AB8EE53
:10240000411AB8EE400A0120FFF772FB337884EDE1
:10241000000A07EE903AF8EE677AB4EEE70AF1EEBA
:1024200010FA02DDC4ED007AC6E72B7807EE903A89
:10243000B8EEE77AB4EEC70AF1EE10FABCD5F8EEC2
:10244000677AEFE7FFF77EFA164B1B78012B11D165
:10245000104B1878FFF73EF803F0C8FE0A4B1860DF
:102460000B4B00221A70012333702B700A4B002291
:102470001A6057E7042B04BF0B4B1C70ECE700BF3E
:1024800001000020020000202C010020A7010020F4
:1024900030010020A9010020A0010020A601002099
:1024A000A8010020D2010020AD0100201FB5124C70
:1024B0002368022B14D1114901A804F07CFB01A967
:1024C000204600F063FC044601A804F02FFBFEF751
:1024D000F9FF50B10120FFF735FAE0B2FEF7FAFF3D
:1024E00004B0BDE81040FFF72FBBFEF7EBFF00285C
:1024F000F6D1FFF727FAF3E748010020209B0008F8
:10250000F8B5314C2368DB0705D403F06FFE2F4B81
:10251000186001232360FEF7D5FF002841D02C4E20
:10252000377877BB2B4D294C2878C8B10120FFF7AD
:1025300009FA294B1878FEF7CDFF03F057FE236800
:10254000C01A264B1B784FF47A725343984203D338
:102550002F7003F04BFE2060BDE8F840FFF7F4BA9F
:10256000FEF7B8FF03F042FE2368C01A1C4B1B782D
:102570004FF47A7253439842EED3012333702B7099
:10258000E7E7184B1B78012B03D10920FEF7A2FFC8
:10259000E2E7042BE0D1144B01221A70134B187898
:1025A000F4E7FEF78FFF04460028D5D1FFF7CAF9FC
:1025B000094B1878FEF78EFF054B1C7003F016FED2
:1025C000024B1860C8E700BFF80000201C01002083
:1025D0001A01002000000020AA010020AC01002008
:1025E000AB010020D2010020AD010020A901002094
:1025F00008B51D4B1B78013B072B05D8DFE803F01E
:102600000B12191D042C3232FFF794F900BBBDE800
:102610000840FFF799BAFFF78DF9C8B9BDE808403F
:10262000FFF76EBFFFF786F990B9BDE80840FFF7E6
:1026300043BEBDE80840FFF739BFFFF77BF920B97B
:102640000A4B1B78002BF0D1E8E7FFF773F948B18C
:10265000BDE80840FFF7CCB9054B1878BDE8084045
:10266000FFF726BD08BD00BFD2010020AD0100204C
:102670003C01002008B5FEF725FC054800F032FBC0
:10268000FFF77EF9FFF7B4FFBDE80840FEF75ABF39
:102690004801002008B5124880232D222F2100F088
:1026A000EEFD104880232E22C42100F0E8FDC82052
:1026B00003F09EFD0A4800F0CDFD80B1094800F00E
:1026C000C9FD60B19FED080A054800F079FE9FED55
:1026D000070A044800F074FE054B01221A7008BD79
:1026E000D4000020E40000204972F44425B902C55A
:1026F000D10100201FB5BE4CBE4901A804F05BFA11
:10270000642201A9204600F091FA01A804F00EFA13
:10271000B94901A804F04FFA642201A9204600F04B
:1027200085FA01A804F002FAB44901A804F043FABA
:10273000072201A9204600F079FA01A804F0F6F971
:10274000AF4901A804F037FA072201A9204600F09A
:102750006DFA01A804F0EAF9AA4901A804F02BFADD
:1027600040F2262201A9204600F060FA01A804F0F8
:10277000DDF9A54901A804F01EFA40F2262201A9BC
:10278000204600F053FA01A804F0D0F99F4901A8AF
:1027900004F011FA052201A9204600F047FA01A829
:1027A00004F0C4F99A4901A804F005FA052201A928
:1027B000204600F03BFA01A804F0B8F9954901A8B9
:1027C00004F0F9F9022201A9204600F02FFA01A82D
:1027D00004F0ACF9904901A804F0EDF9022201A936
:1027E000204600F023FA01A804F0A0F98B4901A8C3
:1027F00004F0E1F9092201A9204600F017FA01A826
:1028000004F094F9864901A804F0D5F9092201A938
:10281000204600F00BFA01A804F088F9814901A8CC
:1028200004F0C9F9062201A9204600F0FFF901A829
:1028300004F07CF97C4901A804F0BDF9062201A945
:10284000204600F0F3F901A804F070F9774901A8D7
:1028500004F0B1F9052201A9204600F0E7F901A82A
:1028600004F064F9724901A804F0A5F9052201A950
:10287000204600F0DBF901A804F058F96D4901A8E1
:1028800004F099F9142201A9204600F0CFF901A81B
:1028900004F04CF9684901A804F08DF9142201A94B
:1028A000204600F0C3F901A804F040F9634901A8EB
:1028B00004F081F9012201A9204600F0B7F901A82E
:1028C00004F034F95E4901A804F075F9012201A968
:1028D000204600F0ABF901A804F028F9594901A8F5
:1028E00004F069F9012201A9204600F09FF901A82E
:1028F00004F01CF9544901A804F05DF9012201A972
:10290000204600F093F901A804F010F94F4901A8FE
:1029100004F051F9082201A9204600F087F901A826
:1029200004F004F94A4901A804F045F9082201A974
:10293000204600F07BF901A804F0F8F8454901A809
:1029400004F039F9022201A9204600F06FF901A82C
:1029500004F0ECF8404901A804F02DF9022201A985
:10296000204600F063F901A804F0E0F83B4901A813
:1029700004F021F9052201A9204600F057F901A829
:1029800004F0D4F8364901A804F015F9052201A98C
:10299000204600F04BF901A804F0C8F8314901A81D
:1029A00004F009F9322201A9204600F03FF901A8FC
:1029B00004F0BCF82C4901A804F0FDF8012201A99B
:1029C000204600F033F901A804F0B0F8274901A827
:1029D00004F0F1F8012201A9204600F027F901A82E
:1029E00004F0A4F8224901A804F0E5F8012241E02E
:1029F00048010020399A0008279B0008429A0008E5
:102A0000379B0008499A0008479B00084E9A000827
:102A1000579B0008539A0008679B0008039A000818
:102A2000779B00080B9A0008879B0008119A000802
:102A3000979B0008189A0008A79B0008E0990008D7
:102A4000B79B0008E8990008C89B0008F0990008A7
:102A5000D99B0008F6990008E99B0008FC9900083A
:102A6000F99B0008589A0008B19A0008099C0008D0
:102A7000C29A000801A9204600F0D8F801A804F085
:102A800055F8134901A804F096F8012201A920463F
:102A900000F0CCF801A804F049F80E4901A804F0B0
:102AA0008AF8002201A9204600F0C0F801A804F02D
:102AB0003DF8094901A804F07EF8002201A920464A
:102AC00000F0B4F801A804F031F804B010BD00BF64
:102AD000239C00085E9A00083C9C00087FB50622F3
:102AE0001B481C4E1C4D4FF4E13103F0EFFC01215B
:102AF000022003F097FA0221152003F093FA022135
:102B0000142003F08FFA0020FEF732FF1348002153
:102B100000F096FC314601A804F04DF801A90E48DA
:102B200000F034F9044601A804F000F8642C03D046
:102B3000642003F05DFBEDE7FFF7DCFDFFF7AAFD86
:102B40002B686B60064B01221A7004B070BD00BF89
:102B50006C0300204E9C000848010020B4010020B6
:102B6000F500002007B54A23062205210B4800F096
:102B70007DFA0B490B4800F03DF803230093072230
:102B80007F231321084800F01FFC084800F058FB81
:102B9000074803B05DF804EB00F052BBDC010020F5
:102BA0006C03002048010020B4010020D400002064
:102BB000E400002010B50C480C4C00F0F1FA0C4871
:102BC00000F0EEFA04F14C0003F0B0FF04F12C0029
:102BD00003F0ACFF04F1200003F0A8FF04F11000A3
:102BE000BDE8104003F0A2BFE4000020480100202F
:102BF000D400002038B504460D4610300A4903F0D1
:102C0000DAFF094904F1200003F0D5FF064904F179
:102C10002C0003F0D0FF044904F14C0003F0CBFF7B
:102C2000E560204638BD00BF1DA8000870B5044609
:102C300000F110061546304603F0D0FF3146E0683B
:102C4000E56103F091FE0749E06803F092FEE16957
:102C5000E0680A2203F0AFFEE0680349BDE8704077
:102C600003F087BE5E9C0008609C0008F8B504462F
:102C700000F11006174604F12005304603F0AEFFC0
:102C80003946284603F0AAFF1249284603F0E3FF1D
:102C900048B1E068314603F067FEE0680E49BDE8E0
:102CA000F84003F066BE0B49284603F0D4FF80B914
:102CB0003146E06803F058FE0849E06803F059FE29
:102CC0002946E06803F050FE0549E06803F051FE34
:102CD000E3E7F8BDAD9A0008609C0008649C00081A
:102CE000659C000810B50446C06803681B699847D6
:102CF00002283ADDE06803685B69984784F8400081
:102D000003F074FA6064E06894F840200368232AB2
:102D10005B691DD1E06803685B69984784F84A00E5
:102D200003F064FA0123606484F84830E0680368C3
:102D30001B69984794F84A30984217DA03F056FA1C
:102D4000636CC01A6428F1D9002384F848300CE081
:102D5000984784F8400003F049FA636CC01A64286D
:102D6000D1D994F84030232BD4D010BD94F84830FA
:102D7000002BFAD0E06803685B69984784F8490043
:102D80002046BDE8104000F056B9000070B500F1D3
:102D90002C050446284603F021FF454BE36303F06E
:102DA00025FA6064E06803681B69984740B103F046
:102DB0001DFA636CC01AB0F57A7F28D93C4BE363E7
:102DC0003C49E06803F0D5FD2946E06803F0CCFDFE
:102DD0003949E06803F0CDFD03F008FA6064E0686B
:102DE00003681B699847072808DC03F0FFF9636C48
:102DF000C01AB0F5C87FF2D92D4BE363E0680368D1
:102E00001B699847072806DC2948E06370BD204607
:102E1000FFF768FFC6E7E06803685B69984784F8D6
:102E2000400003F0E3F9606494F84020E068712A00
:102E3000036822D104F1380504F13C06E068036818
:102E40005B69984705F8010BB542F7D103F0CEF95D
:102E500000256064E06803685B699847C0B2FF289A
:102E6000D2D103F0C3F9636CC01AB0F57A7F05F1D3
:102E7000010518D9032DC7D117E01B69984728B160
:102E8000E06803685B69984784F8400003F0AEF996
:102E9000636CC01A6428C7D9054BE36394F84030CB
:102EA000712BB1D1C6E7032DD4D1A06BADE700BF24
:102EB00031DE0B006D9C0008609C0008C06808B5FE
:102EC00003685B699847C0B232281DD8DFE800F07C
:102ED0001A1D202326292C2F3235383B3E414447EA
:102EE0004A4D505356595C5F6265686B6E717477DA
:102EF0007A7D808386898C8F9295989B9EA1A4A7CA
:102F0000AAADB000AFF3008008BDFEF745F9FBE7BE
:102F1000FEF7BCFAF8E7AFF30080F5E7AFF3008007
:102F2000F2E7AFF30080EFE7AFF30080ECE7AFF339
:102F30000080E9E7AFF30080E6E7AFF30080E3E766
:102F4000AFF30080E0E7AFF30080DDE7AFF3008090
:102F5000DAE7AFF30080D7E7AFF30080D4E7AFF351
:102F60000080D1E7AFF30080CEE7AFF30080CBE77E
:102F7000AFF30080C8E7AFF30080C5E7AFF3008090
:102F8000C2E7AFF30080BFE7AFF30080BCE7AFF369
:102F90000080B9E7AFF30080B6E7AFF30080B3E796
:102FA000AFF30080B0E7AFF30080ADE7AFF3008090
:102FB000AAE7AFF30080A7E7AFF30080A4E7AFF381
:102FC0000080A1E7AFF300809EE7AFF300809BE7AE
:102FD000AFF3008098E7AFF3008095E7AFF3008090
:102FE00092E7AFF300808FE7AFF300808CE7AFF399
:102FF000008089E7AFF3008086E7AFF3008083E7C6
:10300000AFF3008080E7AFF300807DE7AFF300808F
:103010007AE7AFF3008077E7AFF3008074E7AFF3B0
:10302000008071E7AFF300806EE7AFF300806BE7DD
:10303000AFF3008068E710B590F84930502B044694
:1030400008D0542B0ED0037290F84A304372AFF37D
:10305000008006E003684360C06803685B699847C6
:10306000206010BDBDE81040FFF728BF10B5044632
:103070001046A27063702170012102F0D3FF94F911
:103080000000012102F0CEFF94F90100002102F0BE
:10309000C9FF94F90200012103F034F8204610BD65
:1030A0002DE9F8431B4E1C4F04464FF0000807253E
:1030B000002194F90000DFF8649003F023F80A225D
:1030C0007168D9F80030B3FBF7F353437268521AB2
:1030D0009342FBDC94F9010003F04EF828B1012083
:1030E000A84040EA08005FFA80F8012194F9000046
:1030F00003F008F80A227168D9F80030B3FBF7F33F
:1031000053437268521A9342FBDC013DD0D24046D1
:10311000BDE8F883001000E040420F0038000020B6
:1031200070B50021064690F9020002F0EBFF174946
:10313000174B184A1B684868B3FBF2F30A22534343
:103140004A68121A9342FBDC3046FFF7A9FF0502DA
:103150003046FFF7A5FF05F47F4545EA0004A4B219
:1031600096F90200012102F0CDFF63070BD4E008BD
:10317000FDF7C8F9084B0022FDF72EFAFDF724FDF4
:1031800000EE100A70BD9FED050AFBE7001000E09D
:103190003800002040420F000000D03F0000C07FF8
:1031A000704710B51021044603F07BFD204610BD8A
:1031B0002DE9F74FDFF87C80DFF87CA0019206460E
:1031C0000F46072500240121384602F09BFFDFF857
:1031D0006CB0D8F80410DBF80030B3FBFAF2D8F882
:1031E00004305B1A9A42FADC019BC5F1070964B20C
:1031F0003046D3B902F0C0FF00FA09F004430021C1
:10320000384602F07FFFD8F80410DBF80020B2FB4C
:10321000FAF2E4B2D8F804305B1A9A42FADC013DC3
:10322000D1D2204603B0BDE8F08F02F0A5FFA84040
:10323000E4E700BF001000E040420F00380000202B
:10324000034A0260002282604FF07E52C2607047E3
:103250007C9C000808B5407902F08EFFB0FA80F03F
:10326000400908BD402908D0802903D0202903D176
:10327000022300E00123837170470323FBE738B585
:10328000044610462271617101211D4602F0CAFEFA
:103290006079002102F0C6FE29462046BDE838408C
:1032A000FFF7E0BF38B505460C462846FFF7D2FFCA
:1032B00018B9204602F09CFFF7E738BD2DE9F04130
:1032C00000210446FFF7EEFF72B6012221796079F2
:1032D000FFF76EFF2179012206466079FFF768FF4C
:1032E0002179054601226079FFF762FF4FF000085F
:1032F0000746A37943450AD92079012102F002FF4C
:103300002079002102F0FEFE08F10108F1E762B623
:103310002B0243EA06433B4346F3C01043EA0060F6
:10332000BDE8F081F8B506460F46144602F05EFF90
:10333000054602F05BFF401BB84207D23046FFF75C
:1033400089FF20B9204602F053FFF2E70020F8BDC4
:10335000F8B5002406460F462546BC4208D0304644
:10336000FFF7ACFF0544002002F042FF0134F4E710
:1033700095FBF4F0F8BD10B50446FFF7E9FFA3682C
:10338000C01AFDF7BFF841EC100B10BD70B5064632
:10339000FFF7F1FFF06855EC104BFDF7C5F802465A
:1033A0000B4620462946FDF741FAFDF70DFC00EEDD
:1033B000100A70BD10B50446FFF7CAFFA06010BD2B
:1033C00080ED030A70470000F8B51F46184B04460D
:1033D0000E46154618600221304602F023FE267084
:1033E0000121284602F01EFE227865704A2A0CD878
:1033F000104B53F82200431C18BF1046069A0E4982
:1034000003F072FB67602046F8BD02F0C003C02BDA
:103410000AD1CF2A08D8094B02F03F0153F82110F6
:10342000044B53F82100E6E74FF0FF30E6E700BF1A
:10343000E8010020C4A40008AD34000884A40008FA
:1034400043688B428CBF816083607047037C407807
:1034500013B1002102F056BE0121FBE78268C36868
:103460001344C360C26843689A4223BFC268D21A39
:10347000C260012228BF00220274C26893423EBF8C
:103480000023C3600374037C13B9436901334361B0
:10349000037C43B98369002B05DD426983699A4245
:1034A000C4BF01230374FFF7D1BF0000014B1868AC
:1034B000FFF7D4BFE801002010B50A4C22681318AA
:1034C000EFF308818B4206D9074B0C221A604FF0AC
:1034D000FF32104610BD05490548091A8B42F3D248
:1034E0002360F6E708000020B80400200000022056
:1034F00000040000FEE70000024B16221A604FF0A5
:10350000FF307047B804002001207047704700006A
:1035100038B50E4A0E4B054618784FF47A73B3FB54
:10352000F0F31068B0FBF3F000F0F2FA044658B97B
:103530000F2D09D8024629464FF0FF3000F094FACB
:10354000044B20461D6038BD0120FCE738000020F8
:103550000C0000201000002008B50B4B1A6842F444
:1035600000721A601A6842F480621A601A6842F4A3
:1035700080721A60032000F065FA0020FFF7C8FF90
:10358000FFF7C4FF002008BD003C0240034A044B83
:1035900011681B780B441360704700BFEC010020DA
:1035A0000C000020014B1868704700BFEC010020A0
:1035B00038B50446002800F09B80056C25B902F060
:1035C00027FA656484F83C50236CDB0600F18E809A
:1035D000236C23F4885323F0020343F00203236493
:1035E000444B5A6822F440325A605A6861680A4370
:1035F0005A60236821695A6822F480725A605A68B6
:1036000042EA01225A605A68A16822F040725A6068
:103610005A680A435A609A68E16822F400629A6024
:103620009A680A439A603449A26A8A4252D09968D9
:1036300021F07061996099680A439A609A68E16A1A
:1036400022F040529A609A680A439A609A6822F07F
:1036500002029A609A68217E42EA41029A6094F8D6
:103660002020002A3ED05A68616A42F400625A6003
:103670005A6822F460425A605A68013942EA41327B
:103680005A60DA6AE16922F47002DA62DA6A0139B0
:1036900042EA0152DA629A6822F400729A609A68E9
:1036A00094F8301042EA41229A609A68616922F4E3
:1036B00080629A609A68002042EA81229A6060647F
:1036C000236C23F0030343F001032364002384F8F5
:1036D0003C3038BD9A6822F070629A609A6822F095
:1036E0004052B2E75A6822F40062C9E70120EDE7D0
:1036F0000120EEE7002301400100000F38B5044629
:10370000A0B1036C43F00203036403689A6822F0DB
:1037100001029A609D6815F0010503D102F0C0F91D
:1037200065642564002084F83C0038BD0120FCE776
:1037300013B50023019390F83C30012B6CD001238A
:10374000026880F83C309368D9070CD5936813F071
:1037500001031AD1026C42F010020264426C42F082
:103760000102426456E093682D4943F001039360DF
:103770002C4B1B68B3FBF1F303EB43030193019B59
:10378000002BE3D0019B013BF8E7036C264C23F4AC
:10379000E06323F0010343F48073036453685B0523
:1037A00041BF036C23F4405343F480530364036C20
:1037B00013F480531CBF436C23F0060343646FF083
:1037C0002201002380F83C3011601849486810F04D
:1037D0001F0019D1A24206D0154B9A420DD14B6859
:1037E00013F01F0F07D1906810F0405016D1936866
:1037F00043F08043936002B010BD0E4B9A42FAD161
:103800004B6813F0100FEDE7A24207D1906810F05B
:103810004050ECD01846EEE70220ECE70020EAE743
:1038200040420F00380000200020014000230140EA
:10383000002101400022014090F83C30012B14D0BF
:1038400003689A6822F001029A609B68DB0707D43C
:10385000036C23F4885323F0010343F00103036452
:10386000002380F83C3018467047022070470368F8
:103870009A68520570B504460D460BD59B68DE0567
:1038800008D5036C43F020030364002380F83C3028
:10389000012070BDFFF786FE064623681A6891076F
:1038A0000CD56FF012021A60226C42F4007222648E
:1038B0009A6812F0405F17D00020EAE7681CEDD04C
:1038C00065B923681B6813F00203E6D1226C84F803
:1038D0003C3042F0040222640320DAE7FFF762FE84
:1038E000801BA842EDD8D8E7207E0028E4D1DA6A10
:1038F00012F4700F02D09B685A05DDD4236C23F4B8
:1039000080732364236CDB04D6D4236C43F001035F
:103910002364BEE70368D86C70470000F7B5002346
:10392000019390F83C30012B66D0012380F83C30A5
:103930000D6803688E68092DACB231D904EB4402DE
:10394000DF681E3A4FF0070C0CFA02FC27EA0C075E
:10395000DF60DF6806FA02F23A43DA604968062956
:1039600001EB81022CD8596B053A1F26964021EABB
:1039700006015963596B04FA02F20A435A632C4A4E
:10398000934207D1122D39D1D2F8043343F4800386
:10399000C2F80433002380F83C30184603B0F0BD71
:1039A0001F6905EB45024FF0070C0CFA02FC27EAF1
:1039B0000C071F611F6906FA02F23A431A61CDE74C
:1039C0000C294FF01F010BD81E6B233A914026EAB9
:1039D00001011963196B04FA02F20A431A63CEE774
:1039E000DE6A413A914026EA0101D962D96A04FAB5
:1039F00002F20A43DA62C2E70220CFE7A5F1100320
:103A0000012BC7D80B4A5368102D43F400035360B1
:103A1000C0D1094B094A1B68B3FBF2F30A22534396
:103A20000193019B002BB5D0019B013BF8E700BF40
:103A300000200140002301403800002040420F00D8
:103A4000006C70470749CA6822F4E062030212045E
:103A500003F4E063120C134343F0BF6343F40033F9
:103A6000CB60704700ED00E0164B30B5DC68C4F366
:103A70000224C4F10705231D042D28BF0425062BAD
:103A80004FF0FF338CBF033C002403FA05F521EA15
:103A90000501A34022EA0302A140002841EA0203F3
:103AA000ACBF00F16040084A4FEA0313B8BF00F012
:103AB0000F00DBB2AABF00F56140135480F8003359
:103AC00030BD00BF00ED00E014ED00E0002808DB91
:103AD0000123420900F01F0003FA00F0014B43F8F4
:103AE0002200704700E100E000280DDB43090122BD
:103AF00000F01F0002FA00F02033044A42F82300CD
:103B0000BFF34F8FBFF36F8F704700BF00E100E03E
:103B10000138B0F1807F0BD24FF0E023054A5861A5
:103B2000F02182F823100020072298611A61704763
:103B30000120704700ED00E0002809DB4309012265
:103B400000F01F0002FA00F06033024A42F823003E
:103B5000704700BF00E100E0704708B5FFF7FCFFC9
:103B600008BD10B5044640B10223037101F01EFFE9
:103B7000002020616071207110BD0120FCE710B5AC
:103B800004680122236801F0100102FA01F123EA1E
:103B9000010121600271002010BD70B50446866DE0
:103BA000FFF700FD94F83530022B054606D0802340
:103BB0006365002384F83430012070BD23681A68DF
:103BC00022F016021A605A6922F080025A61226CB1
:103BD0000AB9A26C1AB11A6822F008021A601A68AF
:103BE00022F001021A6023681B6813F001030AD156
:103BF000E16D3F228A40B260012284F8352084F8CA
:103C000034301846D9E7FFF7CDFC401B0528EAD928
:103C1000202363650320002384F8350084F83430C2
:103C2000CBE790F83530022B03D080234365012089
:103C300070470268052380F83530136823F00103CC
:103C400013600020704700002DE9F74FDFF8A891BE
:103C5000674A00230D6801249C4004EA050CAC432C
:103C600040F0B1804D6805F003044FEA4308032695
:103C7000671E06FA08F6012F6FEA060634D8876831
:103C800007EA060ECF6807FA08F747EA0E078760CB
:103C9000476827EA0C0EC5F300179F4047EA0E0756
:103CA0004760C76807EA060E8F6807FA08F747EA11
:103CB0000E07022CC76019D14FEAD30A00EB8A0A1B
:103CC00003F0070BDAF820704FEA8B0B4FF00F0E62
:103CD0000EFA0BFE27EA0E0E0F6907FA0BF747EAFA
:103CE0000E07CAF8207001E0032CDAD1076804FA45
:103CF00008F43E40264315F4403F066063D04FF081
:103D0000000ACDF804A0D9F844603A4C46F4804645
:103D1000C9F84460D9F8446006F480460196019ED3
:103D200023F0030606F1804606F59C3603F0030EE9
:103D3000D6F808804FEA8E0E0F2707FA0EF7A0423A
:103D400028EA070746D004F58064A04244D004F571
:103D50008064A04242D004F58064A04240D004F5C3
:103D60008064A0423ED004F58064A0423CD004F5BB
:103D70008064A0423AD004F58064A0420CBF0724BE
:103D8000082404FA0EF43C43B46014686FEA0C068D
:103D9000EF0354BF34404CEA040414605468AF038A
:103DA00054BF34404CEA040454609468EF0254BF9A
:103DB00034404CEA04049460D468AD0254BF3440EB
:103DC0004CEA0404D4600133102B7FF443AF03B0FA
:103DD000BDE8F08F5446D4E70124D2E70224D0E7AF
:103DE0000324CEE70424CCE70524CAE70624C8E769
:103DF000003C01400000024000380240044A516982
:103E0000014208B502D0506101F062FF08BD00BF59
:103E1000003C01402DE9F341044640B30368DD074F
:103E200010D4236898075ED423681A0700F1A08095
:103E300023685B0700F1C080A069002840F028815A
:103E400000202BE08F4B9A6802F00C02042A07D066
:103E50009A6802F00C02082A0BD15A68510208D560
:103E6000884B1B689A03DCD56368002BD9D10120ED
:103E700014E06268B2F5803F13D11A6842F48032D0
:103E80001A60FFF78FFB7F4E054633689B03C8D44B
:103E9000FFF788FB401B6428F7D9032002B0BDE878
:103EA000F081784DB2F5A02F2B6807D143F4802321
:103EB0002B602B6843F480332B60E2E723F48033DC
:103EC0002B602B6823F480232B60002AD9D1FFF7C5
:103ED00069FB06462B689F03A3D5FFF763FB801B96
:103EE0006428F7D9D9E7674B9A6812F00C0F07D00E
:103EF0009A6802F00C02082A11D15B685E020ED4A7
:103F0000604A13689D0702D5E368012BAFD113689F
:103F1000216923F0F80343EAC103136084E7E268F0
:103F2000594BB2B101221A60FFF73CFB554D0646D2
:103F30002B68980707D52B68226923F0F80343EA1A
:103F4000C2032B6070E7FFF72DFB801B0228EFD91F
:103F5000A3E71A60FFF726FB4A4E05463368990728
:103F60007FF562AFFFF71EFB401B0228F6D994E7EE
:103F70006269454B82B10122C3F8802EFFF712FB24
:103F8000404E0546736F9F073FF552AFFFF70AFBA0
:103F9000401B0228F6D980E7C3F8802EFFF702FB0A
:103FA000384E0546736F98077FF542AFFFF7FAFA70
:103FB000401B0228F6D970E7324B1A6C12F080527F
:103FC00028D101921A6C42F080521A641B6C03F0E3
:103FD00080530193019B01272C4D2B68D9051BD5DC
:103FE000A368284D012B27D12B6F43F001032B67CA
:103FF000FFF7D8FA234E054641F28838336F9B0706
:1040000039D5002F3FF418AF1E4A136C23F08053AC
:10401000136411E70027DFE72B6843F480732B60FC
:10402000FFF7C0FA06462B68DA05D9D4FFF7BAFACB
:10403000801B0228F7D930E7052B04D12B6F43F002
:1040400004032B67D0E72A6F22F001022A672A6F48
:1040500022F004022A67002BCAD1FFF7A3FA41F22B
:10406000883806462B6F9807CBD5FFF79BFA801B45
:104070004045F7D911E7FFF795FA401B4045BDD9F8
:104080000BE700BF003802400000474200700040CC
:10409000364DAB6803F00C03082B3DD0344B0022A7
:1040A00002281A662BD1FFF77DFA06462B68990184
:1040B0001FD4D4E907321343626A43EA8213E26AE7
:1040C00043EA0263A26A5208013A43EA02436B6080
:1040D000274B264D01221A66FFF764FA04462B6827
:1040E0009A013FF5ADAEFFF75DFA001B0228F6D945
:1040F000D3E6FFF757FA801B0228D7D9CDE6FFF7A2
:1041000051FA04462B689B017FF59AAEFFF74AFAF5
:10411000001B0228F6D9C0E601283FF4BFAE6B6849
:10412000E26903F4800191427FF4A1AE216A03F0B9
:104130003F028A427FF49BAE616A47F6C0721A4022
:10414000B2EB811F7FF493AEA26A520803F44031B0
:10415000013AB1EB024F7FF48AAEE26A03F070637A
:10416000B3EB026F3FF46CAE81E600BF0038024053
:1041700000004742134908B58B6803F00C03042B79
:104180001CD0082B1CD14A684B68496813F4800383
:1041900014BF0D480D48C1F3881118BF002302F069
:1041A0003F02A1FB0001FCF75FFD064B5B68C3F318
:1041B000014301335B00B0FBF3F008BD0248FCE7AC
:1041C0000248FAE70038024000127A000024F400A6
:1041D0002DE9F0410D46044610B90120BDE8F081FB
:1041E000444B1A6802F007028A4228D322689707D4
:1041F0002DD4D00741D43F4B1A6802F00702AA42DF
:1042000066D8226851076CD4130707D53A4A21694A
:10421000936823F4604343EAC1039360FFF7AAFF66
:10422000354B364A9B68C3F30313D35CD840344BF9
:104230001860344B1868FFF76BF90020CEE7CAB25C
:104240001A701B6803F007038B42C6D1CEE72A4BD6
:1042500012F0040F1EBF996841F4E05199601607EF
:1042600042BF996841F4604199602349A0688B6816
:1042700023F0F00303438B60BBE762681E4B012A07
:104280001CD11B6813F4003FA7D01B4EB36823F06A
:1042900003031343B360FFF785F941F288380746FB
:1042A000B368626803F00C03B3EB820FA3D0FFF78F
:1042B00079F9C01B4045F3D903208FE7911E0129EE
:1042C0001B6802D813F0007FDEE713F0020FDBE774
:1042D000EAB21A701B6803F00703AB427FF47DAFAC
:1042E0008FE70549E0688B6823F4E05303438B6054
:1042F0008AE700BF003C024000380240489D0008A9
:104300003800002010000020044B054A9B68C3F3CE
:104310008223D35C034A1068D840704700380240BB
:10432000589D000838000020044B054A9B68C3F3E1
:104330004233D35C034A1068D840704700380240CB
:10434000589D0008380000207047704703681A69BC
:10435000910710B504460ED5DA6892070BD56FF0B9
:1043600002021A61012202779B699B0777D002F053
:10437000E7FA0023237723681A69500710D5DA6813
:1043800051070DD56FF004021A61022222779B6952
:1043900013F4407F204668D002F0D2FA002323773E
:1043A00023681A6912070FD5DA6810070CD56FF069
:1043B00008021A6104222277DB69990720465AD045
:1043C00002F0BEFA0023237723681A69D20610D5BB
:1043D000DA68D0060DD56FF010021A610822227734
:1043E000DB6913F4407F20464BD002F0A9FA00238A
:1043F000237723681A69D10708D5DA68D20705D56B
:104400006FF001021A61204602F06EFA23681A6901
:10441000100608D5DA68110605D56FF080021A611A
:10442000204600F0C8F823681A69520608D5DA68F1
:10443000500605D56FF040021A612046FFF785FF50
:1044400023681A69910622D5DA6892061FD56FF0A3
:10445000200220461A61BDE8104000F0ABB802F01F
:104460006DFA2046FFF770FF83E702F067FA2046F7
:10447000FFF76AFF92E702F061FA2046FFF764FF58
:10448000A0E702F05BFA2046FFF75EFFAFE710BD42
:10449000304A0368904212D0B0F1804F0FD0A2F59D
:1044A0007C4290420BD002F58062904207D002F528
:1044B0008062904203D002F57842904219D14A6856
:1044C00023F070031343234A904229D0B0F1804F68
:1044D00026D0A2F57C42904222D002F58062904222
:1044E0001ED002F5806290421AD002F578429042C6
:1044F00016D0194A904213D002F5806290420FD034
:1045000002F5806290420BD0A2F59832904207D01B
:1045100002F58062904203D002F58062904203D19E
:10452000CA6823F4407313434A6923F0800313439A
:1045300003608B68C3620B688362064B984203D0AA
:1045400003F58063984201D10B6903630123436142
:10455000704700BF000001400040014010B5044614
:1045600030B390F83D3003F0FF021BB980F83C20D7
:1045700000F0B2FF0223206884F83D30211DFFF7D0
:1045800087FF012384F84630002084F83E3084F809
:104590003F3084F8403084F8413084F8423084F869
:1045A000433084F8443084F8453084F83D3010BD01
:1045B0000120FCE770477047026802F10C0353E8E2
:1045C000003F23F490730C3242E800310268002966
:1045D000F2D102F1140353E8003F23F0010302F18A
:1045E000140C4CE800310029F3D1036B012B0BD1E3
:1045F00002F10C0353E8003F23F0100302F10C0C0E
:104600004CE800310029F3D1202380F83E3000230C
:10461000036370470268C168136923F440530B4376
:1046200070B51361054683680069D1680343686902
:104630000343E86921F4164121F00C0103430B43C5
:10464000D3605369A96923F440730B4353611F4B33
:104650009A4203D003F580639A4223D1FFF764FEA8
:10466000EB691921B3F5004FD5E90046A0FB010124
:104670001BD1B2194FF000035B41FCF7F5FA64213E
:10468000B0FBF1F501FB1503DB003233B3FBF1F3B3
:1046900003F007025B0002EB051203F4F873134406
:1046A000A36070BDFFF730FEDAE7B200B30FFCF78E
:1046B000DBFA6422B0FBF2F102FB11031B0132337F
:1046C000B3FBF2F303EB0113EAE700BF0010014074
:1046D000704710B5044640B390F83D3003F0FF0238
:1046E0001BB980F83C20FFF7F3FF2268242384F8ED
:1046F0003D30D36823F40053D3602046FFF78AFF90
:1047000023681A6922F490421A615A6922F02A0237
:104710005A61DA6842F40052DA60002020232064F3
:1047200084F83D3084F83E3010BD0120FCE710B520
:10473000044660B390F83D3003F0FF021BB980F8E7
:104740003C20FFF7C5FF2268242384F83D30D3685E
:1047500023F40053D3602046FFF75CFF23681A69F7
:1047600022F490421A615A6922F022025A615A696F
:1047700042F008025A61DA6842F40052DA6000201E
:104780002023206484F83D3084F83E3010BD0120A1
:10479000FCE790F83D30202B18D1A9B1A2B190F8D8
:1047A0003C30012B12D0C284016282840168002354
:1047B0002122036480F83C3080F83D20CA6842F032
:1047C0008002CA6018467047012070470220704777
:1047D00008B5806B0023C385C38401F05DF808BD74
:1047E000704707B58168836A0268B1F5805F3ED182
:1047F000016900293ED15268C2F3080223F8022B56
:104800008362C38D013B9BB2C385002B2CD1026810
:10481000D16821F02001D160D16821F48071D1608C
:10482000516921F001015161202280F83E20026B84
:10483000012A026828D1036302F10C0353E8003F08
:1048400023F0100302F10C0C4CE800310029F3D1E5
:104850001368DB0605D50191136801935368019332
:10486000019B818DFFF7BCFF03B05DF804FB39B9F4
:10487000016929B95268D2B21A70836A0133BFE75D
:10488000526802F07F02F7E701F000F8ECE7000061
:10489000036837B51A68D9685D6912F00F0F0446CE
:1048A0000CD1950670D58D066ED590F83E30222B32
:1048B00064D103B0BDE83040FFF793BF05F00100BD
:1048C00001F4907505435FD0D50705D5CB0542BFF0
:1048D000236C43F001032364550704D518B1236CFE
:1048E00043F002032364930704D518B1236C43F00B
:1048F00004032364150707D501F0200303431EBFFB
:10490000236C43F008032364236C002B36D09006FD
:1049100008D58A0606D594F83E30222B02D12046CF
:10492000FFF75FFF23685B69256C03F0400305F028
:1049300008051D43204623D0FFF73EFE2268536939
:104940005B0618D502F1140353E8003F23F040033F
:1049500002F1140040E800310029F3D1A06B50B1FE
:10496000724B0365FFF75DF940B1A06B036D03B0B7
:10497000BDE830401847204600F08EFF03B030BD40
:1049800000F08AFF2564F9E7206B012840F0918050
:10499000D50640F18E80C80640F18B80002201923E
:1049A0001A6801925A680192019A5A6955064CD5C3
:1049B000A16B0A68526892B2002ADFD0A08D9042A3
:1049C000DCD9E285CA69B2F5807F36D003F10C02EA
:1049D00052E8002F22F4807203F10C0040E800211D
:1049E0000029F3D103F1140252E8002F22F0010252
:1049F00003F1140040E800210029F3D103F114026F
:104A000052E8002F22F0400203F1140040E8002198
:104A10000029F3D1202284F83E20216303F10C0207
:104A200052E8002F22F0100203F10C0040E80021B0
:104A30000029F3D1A06BFFF7B0F8E38DA18DC91A5F
:104A400089B22046FFF7CCFE98E7E18D8AB2E18D6E
:104A500089B2002992D0A18D891A89B200298DD0FE
:104A600003F10C0252E8002F22F4907203F10C05BE
:104A700045E800200028F3D103F1140252E8002F8A
:104A800022F0010203F1140545E800200028F3D1CB
:104A9000202284F83E20206303F10C0252E8002F0C
:104AA00022F0100203F10C0545E800200028F3D1A4
:104AB000C7E7100628D50D0626D594F83D20212AF3
:104AC0007FF45CAFA168226AB1F5805F17D12169DC
:104AD000A9B932F8021BC1F3080159602262E28CC5
:104AE000013A92B2E284002A7FF448AFDA6822F0F9
:104AF0008002DA60DA6842F04002DA603EE7511C78
:104B0000216212785A60EAE750067FF537AF4A060D
:104B10007FF534AFDA6822F04002DA60202384F8AF
:104B20003D30204600F0B5FE28E700BFD147000821
:104B300090F83C30012B11D00268242380F83D30DE
:104B4000D36823F00C0343F00803D360202380F8DC
:104B50003D30002380F83C301846704702207047F3
:104B600090F83C30012B11D00268242380F83D30AE
:104B7000D36823F00C0343F00403D360202380F8B0
:104B80003D30002380F83C301846704702207047C3
:104B900090F83D2090F83E0010437047C285828512
:104BA00022230022026480F83E30036880F83C2013
:104BB0008162D96841F48071D960596941F001017D
:104BC0005961D96841F02001D9601046704770B42E
:104BD00090F83E60202E10D161B15AB190F83C405F
:104BE000012C0AD0012480F83C400024046370BCEE
:104BF000FFF7D4BF012070BC70470220FBE7000024
:104C00008AB0002308287CD8DFE800F00513202DA7
:104C10003A4754616E0001933B4B3C481A6B42F09B
:104C200001021A631B6B03F001030193019B0AB09D
:104C300070470293344B36481A6B42F002021A63F3
:104C40001B6B03F002030293029BF0E703932E4BCE
:104C500030481A6B42F004021A631B6B03F0040322
:104C60000393039BE3E70493274B2B481A6B42F013
:104C700008021A631B6B03F008030493049BD6E736
:104C80000593214B25481A6B42F010021A631B6BE7
:104C900003F010030593059BC9E706931A4B2048C0
:104CA0001A6B42F020021A631B6B03F02003069379
:104CB000069BBCE70793144B1A481A6B42F040025C
:104CC0001A631B6B03F040030793079BAFE708933E
:104CD0000D4B15481A6B42F080021A631B6B03F0F0
:104CE00080030893089BA2E70993074B0F481A6BB0
:104CF00042F480721A631B6B03F480730993099B5F
:104D000095E7002093E700BF003802400000024012
:104D10000004024000080240000C02400010024063
:104D20000014024000180240001C02400020024013
:104D3000FEF738BC704708B5FEF728FCFEF70DFFFC
:104D4000FFF7F8FF08BD704782B00C4B00210091BF
:104D50001A6C42F080521A641A6C02F0805200926F
:104D6000009A01915A6C42F480425A645B6C03F4DD
:104D700080430193019B02B0704700BF003802409E
:104D80000C4BD3F8FC20D2015EBFD3F8FC2042F0DC
:104D90008072C3F8FC20084B00225A601A6842F067
:104DA00001021A6000BF00BF00BF5868B0FA80F06F
:104DB0004009704700ED00E0001000E008B5FFF783
:104DC000C3FFFFF7DDFFFEF7C7FBFFF7BCFFBDE842
:104DD000084001F06FB830B591FAA1F391FAA1F152
:104DE000B3FA83F3C4685B000325B1FA81F105FAD5
:104DF00003F3490024EA03038A401343C36030BD30
:104E0000431C04D00C3151F80C3C5A1C01D1002039
:104E10007047834201F10C01F5D101207047000079
:104E2000484B00F00F02B0F1FF3F2DE9F04153F87D
:104E3000225080460E4601F00707C0F3031403D149
:104E400041489E2100F0D1F82046FFF7D9FE95FA9F
:104E5000A5F2B2FA82F283680321520001FA02F24B
:104E600023EA020195FAA5F3B3FA83F35A00032368
:104E700093400B4304468360032F35D8DFE807F0E7
:104E80001D1D021D18F0080FC6F3062217D02B0AAD
:104E900093FAA3F1B1FA81F1406A93FAA3F389007E
:104EA0004FF00F0CB3FA83F30CFA01F19B0020EAE8
:104EB000010102FA03F30B4363623B4619E095FAE2
:104EC000A5F1B1FA81F1036A89000F2000FA01F11E
:104ED00023EA010195FAA5F3B3FA83F39B0002FAE2
:104EE00003F30B432362E8E71748FB2100F07DF84A
:104EF000002395FAA5F2B2FA82F22168520003204B
:104F000000FA02F221EA020195FAA5F2B2FA82F25F
:104F100052009340013F0B43012F236005D8636883
:104F200032074CBF2B43AB436360C6F30112012A27
:104F300002D0022A18BF002229462046BDE8F041CF
:104F4000FFF749BF089D0008849C0008431C06D158
:104F50007047834202D18968FFF762BF0C310B684A
:104F60005A1CF6D1024840F2291100F03EB800BFA9
:104F7000849C00080B685A1C01D1002070478342B2
:104F800001D1486870470C31F4E7431C01D0FFF7AA
:104F9000F1BF002070474B6813B94FF0FF307047E6
:104FA000834201D1086870470C31F4E708B1FFF77C
:104FB000F2BF4FF0FF30704703460868421C00D133
:104FC0007047984201D1886870470C31F5E7431C5F
:104FD00001D0FFF7F1BF7047884204D018B1002913
:104FE0000CBF0146002108467047FEE70D4AD2F883
:104FF000883043F47003C2F888300B4B1A680021E4
:1050000042F001021A6099601A6822F0847222F458
:1050100080321A60054A5A601A6822F480221A60A7
:10502000D960704700ED00E00038024010300024E5
:105030000438704703686D4A93428EB02AD100222B
:1050400000926B4A516C41F001015164526C02F0C4
:1050500001020092009A674A93425DD100220592B4
:10506000634A116C41F010011164126C02F01002DD
:105070000592059A604A93425DD100230A935C4BE6
:105080005A6C42F480225A645B6C03F480230A93C6
:105090000A9B26E0B3F1804F25D0584A93422FD087
:1050A000574A934257D0574A9342D4D10022049290
:1050B0004F4A116C41F008011164126C02F00802B1
:1050C0000492049A504A9342D4D100230993484B46
:1050D0005A6C42F400325A645B6C03F40033099357
:1050E000099B0EB0704700220192414A116C41F0B9
:1050F00001011164126C02F001020192019AAAE707
:10510000002202923A4A116C41F002011164126CC1
:1051100002F002020292029A3C4A934227D10022F4
:105120000692334A116C41F020011164126C02F0B6
:1051300020020692069A364A934246D100230B93E8
:105140002B4B1A6C42F040021A641B6C03F04003B4
:105150000B930B9BC5E700220392254A116C41F08B
:1051600004011164126C02F004020392039A294AAA
:1051700093421ED0284A9342A4D1002208921C4A8E
:10518000516C41F480315164526C02F480320892C7
:10519000089A224A9342A4D100230D93144B1A6C0F
:1051A00042F480721A641B6C03F480730D930D9BA0
:1051B00097E7002207920E4A516C41F002015164B8
:1051C000526C02F002020792079A154A9342E0D10C
:1051D00000230C93064B1A6C42F080021A641B6C7D
:1051E00003F080030C930C9B7BE700BF00000140A1
:1051F0000038024000100040004801400004004018
:1052000000080040000C0040004401400014004031
:105210000018004000040140004001400020004010
:10522000001C004003683A4A934214D139494A6C41
:1052300022F001024A64384A934231D135490A6C5E
:1052400022F010020A64354A934231D1314A536C3C
:1052500023F4802317E0B3F1804F16D0304A9342F5
:1052600019D0304A93422CD02F4A9342E3D1294996
:105270000A6C22F008020A642C4A9342E3D1254AC0
:10528000536C23F400335364704722490A6C22F0B4
:1052900001020A64CFE71F490A6C22F002020A6485
:1052A000234A934212D11B490A6C22F020020A645D
:1052B000204A93421ED1174A136C23F04003136413
:1052C000704714490A6C22F004020A641A4A934295
:1052D0000BD01A4A9342CFD10E494A6C22F4803245
:1052E0004A64174A93420DD070470A494A6C22F02B
:1052F00002024A64134A9342F3D1064A136C23F024
:105300008003DCE7034A136C23F48073D7E700BF04
:1053100000000140003802400010004000480140F9
:105320000004004000080040000C00400044014020
:1053300000140040001800400004014000400140FB
:1053400000200040001C004008B5431C014616D058
:10535000294B98423ED01ED8A3F5406398423BD0DB
:1053600010D8A3F50063984238D003F580639842C3
:1053700036D0B0F1804F35D02048FFF736FE6FF0C1
:105380000D0008BD1E4B98422ED003F58063984255
:10539000F2D13720F5E71B4B98420CD00DD8A3F57E
:1053A0006443984222D003F56043984220D0A3F58D
:1053B00064439842E0D12C20E3E7134B984217D086
:1053C00003F58063984215D0A3F500639842D3D1CA
:1053D0001820D6E72B20D4E73220D2E71D20D0E7D3
:1053E0001E20CEE71C20CCE73620CAE72D20C8E7D8
:1053F0001920C6E71A20C4E700180040609D000885
:1054000000100040000401400044014008B5431C66
:10541000014616D02B4B98423ED022D8A3F580539C
:1054200098423BD010D8A3F50063984238D003F5DA
:105430008063984236D0B0F1804F35D02248FFF7D4
:10544000D4FD6FF00D0008BD204B98422ED003F51F
:10545000806398422CD0A3F500639842EED13620A9
:10546000F1E71B4B984225D00DD8A3F58043984215
:1054700022D003F58063984220D0A3F5644398427C
:10548000DCD12D20DFE7134B984219D003F5806360
:105490009842D3D11A20D6E72C20D4E73220D2E785
:1054A0001D20D0E71E20CEE71C20CCE73720CAE71E
:1054B0002B20C8E71820C6E71B20C4E72E20C2E730
:1054C0001920C0E7001C0040609D00080014004047
:1054D000004001400044014038B5FFF7ABFD0446F1
:1054E0000068FFF731FFD4E91212FEF7BDFA206819
:1054F000FFF72AFFFEF7EAFA2068FFF787FF054665
:105500002068FFF721FF85420DD02068FFF77EFF5E
:10551000D4E91212FEF7A8FA2068FFF777FFBDE87A
:105520003840FEF7D3BA38BD2DE9F04786B00446BF
:105530008846006D7949DDF8389017461E46FFF71A
:1055400024FD77498246606DFFF71FFD0546BAF1DD
:10555000000F00F0DF80636D013302D0002800F0FF
:10556000D98029465046FFF737FD2060002800F01B
:10557000D1806C4B984240D103F594335A6A42F083
:1055800010025A625A6A22F010025A6200220092F5
:105590005A6C42F010025A645B6C03F010030093E3
:1055A000009B2523A4F858305C49206DFFF7CEFC02
:1055B0001DB15B49606DFFF7C9FC94F859205A4B47
:1055C00094F95800666104F1040A43F822A02368A4
:1055D0000022C4E901380C23C4E90379C4E9063286
:1055E00022620121FEF740FA5046002D40F08D80E6
:1055F00006B0BDE8F047FFF79AB84C4B984217D178
:1056000003F5FA331A6A42F400321A621A6A22F473
:1056100000321A62002201921A6C42F400321A64BB
:105620001B6C03F400330193019B4FF49373B9E7B0
:105630003F4B984217D103F5F8331A6A42F480229F
:105640001A621A6A22F480221A62002202921A6CEA
:1056500042F480221A641B6C03F480230293029BA1
:1056600040F227239EE7334B984217D103F5F633D8
:105670001A6A42F400221A621A6A22F400221A629A
:10568000002203921A6C42F400221A641B6C03F489
:1056900000230393039B4FF44D7383E7264B9842FB
:1056A00017D103F5F4331A6A42F480121A621A6AA7
:1056B00022F480121A62002204921A6C42F48012C0
:1056C0001A641B6C03F480130493049B40F235436B
:1056D00068E71A4B98427FF467AF03F592335A6A32
:1056E00042F020025A625A6A22F020025A620022D4
:1056F00005925A6C42F020025A645B6C03F020035E
:105700000593059B40F247534CE706B0BDE8F047D0
:10571000FEF7DFBF06B0BDE8F08700BF54A3000866
:10572000C4A2000800100140F00100200044004025
:1057300000480040004C0040005000400014014070
:1057400010B418B15DF8044BFFF7EEBE5DF8044BE2
:105750007047000008B5074B90F8592053F8220015
:10576000FFF716FA00F02200A0F122035842584138
:1057700008BD00BFF001002008B5074B90F8592084
:1057800053F82200FFF704FA00F02100A0F12103F2
:105790005842584108BD00BFF001002070B50E46C8
:1057A000054610B94FF0FF3070BDFFF7D3FF044638
:1057B0000028F7D12946012211F85A3F337095F895
:1057C0005900034B53F82000FFF701FA2046EBE79E
:1057D000F001002038B50D460446B8B1FFF7BAFF16
:1057E000A0B994F95800A564FEF77EF994F8590021
:1057F000074B04F15A0153F820000122FFF7E7F9A3
:1058000094F95800BDE83840FEF760B938BD00BFD4
:10581000F001002038B515460446B8B1C16490F9CE
:105820005800FEF761F9236EB4F86A1094F8590035
:1058300013FA81F1064BAAB253F82000FEF7A9FF34
:1058400094F95800BDE83840FEF740B938BD00BFB4
:10585000F001002048B1436D013306D190F8592082
:10586000024B53F82200FFF763B97047F0010020A4
:1058700048B1436D013306D190F85920024B53F8DB
:105880002200FFF76DB97047F0010020436C043827
:105890001847836C043818471FB503680446186816
:1058A00010F0010013D0002200921A6800925B6889
:1058B0000093009B201FFFF74DFF40BB012204F126
:1058C0005601204604B0BDE81040FFF780B91968C2
:1058D00011F0020106D001901A6801925B680193F1
:1058E000019BE7E71A6812F0040206D002911A68D9
:1058F00002925B680293029BDCE719680907D9D51D
:1059000003921A6803925B680393039BD2E704B087
:1059100010BD000008B52520FEF70EF9024B1868EF
:10592000BDE80840FEF7B4BFF001002008B526200E
:10593000FEF702F9034B586818B1BDE80840FEF7BE
:10594000A7BF08BDF001002008B52720FEF7F4F836
:10595000034B986818B1BDE80840FEF799BF08BD31
:10596000F001002008B53420FEF7E6F8024BD868B5
:10597000BDE80840FEF78CBFF001002008B53520D7
:10598000FEF7DAF8024B1869BDE80840FEF780BF61
:10599000F001002008B54720FEF7CEF8024B586909
:1059A000BDE80840FEF774BFF00100200268094B13
:1059B0009A420DD103F5E2331A6A42F000521A629C
:1059C0001A6A22F000521A621A6C22F000521A640B
:1059D000704700BF0074004010B50C4986B0044603
:1059E000FFF7D3FA019078B108492046FFF7EFFAA4
:1059F000C0F3C43002280CBF1021002101A8FEF71B
:105A0000BEF801A8FEF7ADF806B010BD649F00080F
:105A100003681D4A934284B013D1002301931B4BAA
:105A20005A6C42F480725A645B6C03F48073019385
:105A3000019B174B1868C30423D4164904B0FFF721
:105A400085BA154A93420CD1002302930F4B5A6C2E
:105A500042F400725A645B6C03F400730293029B7D
:105A6000E7E70E4A9342E4D100230393074B5A6CB5
:105A700042F480625A645B6C03F480630393039B7B
:105A8000D7E704B0704700BF002001400038024053
:105A90003C000020789D00080021014000220140C8
:105AA000114B12495A6A42F480725A625A6A22F4BD
:105AB00080725A6202688A4204D15A6C22F480725F
:105AC0005A6470470A498A4207D15A6C22F400721C
:105AD0005A645A6C22F40072F2E706498A42F0D105
